:02000002D0002C
:1040000000400D00445D0D00000006000D0005019C
:084010000401DB0700000000C1
:04401800FC590D0042
:10401C0009480A49884208B505D0094A824202D0AB
:10402C00121A01F07DFC0748074A0021121A01F010
:10403C0085FC014808BD00BFC4E50320B45C0D003D
:10404C002CE603202CE60320F0E7032070B5074E86
:10405C00074C00F0F1FEA41BA4080025A54200D1DA
:10406C0070BD56F8043B98470135F7E7805C0D00AE
:10407C00A45C0D0000F03DB808B500F017F9BDE8E0
:10408C00084000F09BBE00F017BB00F01DBB007891
:10409C00B0FA80F04009704701230370704710B5E7
:1040AC000446006808B100F00FFB204610BD0EB4AA
:1040BC0003B503AB002153F8042B019300F0E7FD8B
:1040CC0002B05DF804EB03B070470EB403B503AB5C
:1040DC00012153F8042B019300F0D9FD02B05DF8D7
:1040EC0004EB03B07047002340681A46194600F0F1
:1040FC008BBA08B501F050FABDE808404FF41651E0
:10410C0001F03EBAF0B5051E8BB005DC01F044FAA7
:10411C002449FFF7DAFF0A2501F03EFA3C23224935
:10412C00B5FBF3F203FB1253FFF7CFFF05AB049380
:10413C00012300268DF824301C4F1D49ADF8196061
:10414C0002231020CDE907668DF81B6005978DF8CA
:10415C00183001F0D2FB0446E8B11022314601F0D0
:10416C00EDFB04234FF47A70A3804543089B276032
:10417C00A360E560089401A804A900F049FB01982C
:10418C0008B100F0A1FA089840B184680C2101F044
:10419C00B2FB2046F8E78DF82400ECE701200BB0C9
:1041AC00F0BD00BF105A0D00455A0D001000030061
:1041BC007C5C0D00F8B51A4D074601F0EDF9194974
:1041CC00FFF775FF00231A461946686800F014FAC9
:1041DC00002368681A46194600F0EEF90024002204
:1041EC006868114600F000FA064690B90134BC42EA
:1041FC000ADB01F0D1F90C49FFF767FF0848FFF71C
:10420C0072FF34462046F8BD4FF47A7000F082FD00
:10421C00E5E701F0C1F90549FFF757FFF2E700BFE9
:10422C0094E603206F5A0D008B5A0D00A95A0D000D
:10423C00F8B5064601F0B0F91749184FFFF737FFEC
:10424C0000F012FA002400F017FA0546E8B900F065
:10425C00DDF80134386000F0FFF9B44210DB104C8B
:10426C0001F09AF90F49FFF730FF60682A460221E6
:10427C0000F0B2F92046FFF736FF2C462046F8BD79
:10428C004FF47A7000F046FDDDE701F085F9064940
:10429C00FFF71BFFF2E700BFAD5A0D00ECE7032060
:1042AC0094E60320C65A0D00A95A0D0030B54FF400
:1042BC007A7093B000F02EFD5A20FFF77BFF051E9D
:1042CC005FDD3C20FFF7B4FF041E5ADD2F490AA81E
:1042DC0000F0BDFB0A22294606A800F0F8FB06A94F
:1042EC000AA800F01EFC2A4900F027FC0A222146ED
:1042FC0005460EA800F0EBFB0EA9284600F011FCB9
:10430C00014602A800F0C6FB0EA800F055FB06A85B
:10431C0000F052FB0AA800F04FFB1E4B029A1B78D0
:10432C008DF800301C493C230EA800F0F1FE0F9CC8
:10433C007CB16368013B63605BB9236820469B6872
:10434C009847A368013BA3601BB923682046DB6830
:10435C009847124D4FF47A7000F0DCFC00240EA844
:10436C00CDE90E448DF8404000F0DDFD6868224632
:10437C00022100F031F92846FFF7B5FE02A800F043
:10438C001BFB3C20FFF7BEFE13B030BDE15A0D0005
:10439C00E85A0D003CE60320F35A0D0094E6032086
:1043AC0010B50A4B0A4C01221A7000232360A3801B
:1043BC00A3710320A3F58033A36000F0BFF820465F
:1043CC00044A0549BDE8104001F090BA3CE60320D0
:1043DC0030E603202CE60320AB400D0008B5024B61
:1043EC001B689B68019308BD6802030008B5024B6B
:1043FC001B68DB68019308BD6802030008B5024B1B
:10440C001B685B68019308BD1802030008B5024BDA
:10441C001B685B69019308BD1802030008B5024BC9
:10442C001B685B6C019308BD4802030008B5024B86
:10443C001B689B6C019308BD4802030008B5024B36
:10444C001B685B69019308BD6402030008B5024B4D
:10445C001B681B68019308BD3C02030008B5024BA6
:10446C001B68DB68019308BD3C02030008B5024BD6
:10447C001B681B69019308BD3C02030008B5024B85
:10448C001B685B69019308BD3C02030008B5024B35
:10449C001B689B69019308BD3C02030008B5024BE5
:1044AC001B68DB69019308BD3C02030008B5024B95
:1044BC001B689B6A019308BD3C02030008B5024BC4
:1044CC001B681B68019308BD4C02030008B5024B26
:1044DC001B685B68019308BD4C02030008B5024BD6
:1044EC001B681B69019308BD4C02030008B5024B05
:1044FC001B685B69019308BD4C02030008B5024BB5
:10450C001B689B69019308BD4C02030008B5024B64
:10451C001B68DB69019308BD4C02030008B5024B14
:10452C001B681B6A019308BD4C02030008B5024BC3
:10453C001B681B6D019308BD6002030008B5024B9C
:10454C001B685B68019308BD2002030008B5024B91
:10455C001B685B69019308BD2002030008B5024B80
:10456C001B68DB6C019308BD2002030008B5024BED
:10457C001B685B6D019308BD2002030008B5034B5B
:10458C001B68D3F88830019308BD0000200203009B
:10459C0008B5034B1B68D3F89430019308BD000099
:1045AC002002030008B5034B1B68D3F8AC30019311
:1045BC0008BD00002002030008B5024B1B685B68B5
:1045CC00019308BD4002030008B5024B1B689B68B1
:1045DC00019308BD4002030008B5024B1B68DB6861
:1045EC00019308BD4002030008B5024B1B681B6910
:1045FC00019308BD4002030008B5024B1B685B69C0
:10460C00019308BD4002030008B5024B1B689B696F
:10461C00019308BD4002030008B5024B1B68DB691F
:10462C00019308BD4002030008B5024B1B681B6ACE
:10463C00019308BD4002030008B5024B1B681B6BBD
:10464C00019308BD4002030008B5024B1B685B6B6D
:10465C00019308BD4002030008B5024B1B689B6820
:10466C00019308BD4402030008B5024B1B68DB68CC
:10467C00019308BD4402030008B5024B1B685B693B
:10468C00019308BD4402030008B5024B1B681B6A6A
:10469C00019308BD4402030008B5024B1B68DB6B99
:1046AC00019308BD4402030008B5024B1B685B6C08
:1046BC00019308BD4402030008B5024B1B681B683C
:1046CC00019308BD1C02030008B5024B1B685B6814
:1046DC00019308BD1C02030008B5024B1B689B68C4
:1046EC00019308BD1C02030008B5024B1B685B6AF2
:1046FC00019308BD1C02030008B5024B1B68DB6A62
:10470C00019308BD1C02030008B5024B1B681B6B10
:10471C00019308BD1C02030008B5024B1B685B6CBF
:10472C00019308BD1C020300002240681146FFF7EC
:10473C007BBF002240681146FFF786BF406800220D
:10474C00FFF77ABF4068002281F00101FFF764BFD8
:10475C00002340681A461946FFF756BF00234068ED
:10476C001A461946FFF748BF002240681146FFF76A
:10477C003BBF002240681146FFF726BF406800226D
:10478C000221FFF729BF002340681A46FFF714BF28
:10479C00024B03225A60024A1A60704740E603201B
:1047AC00085B0D0010B50446006818B1FFF78CFFCC
:1047BC000023236010BD38B5B1F9043083800B465B
:1047CC000D4653F8062FC0F806209B8843810446FB
:1047DC00FFF7E8FF2B6813B1236000232B60204602
:1047EC0038BD000038B50C460546FFF7DBFF44B179
:1047FC002088FFF761FF286028B12288214601F04C
:10480C008FF8002038BD0148FCE700BFFCFEFFFF1D
:10481C00F0B52D4D0B7D04468BB00846AF1D002B1B
:10482C0038D00B681B79002B34D00022274B049313
:10483C0002A904300292ADF80C208DF80E20FFF77F
:10484C00B1FEDDF80E30C5F8063000B2BDF81230FE
:10485C00ADF80C00A8800299BB802846FFF7C2FF78
:10486C0002A8FFF79FFF00232360A380A37123817D
:10487C004FF6FF736381B5F90430A3803B68C4F82D
:10488C000630BB88296863812046FFF7ABFF2046C2
:10489C000BB0F0BD00262023CDE902360C4B009363
:1048AC000C49334602AA3220FFF740FE074B049313
:1048BC0002A94FF6F263044802968DF80E60ADF82B
:1048CC000C30FFF778FFCBE748E603200000FFFF32
:1048DC003B5B0D00345B0D0010B5094B094C0222FB
:1048EC0000201A60084B2060A080A071A360FFF725
:1048FC0025FE2046054A0649BDE8104000F0F6BFEB
:10490C0054E6032048E603200000FFFF2CE60320BA
:10491C00AB400D0010B5044601F061F801382318C6
:10492C002046834206D90278197800F8011B03F857
:10493C000129F6E710BD70B50C46911E22290546DB
:10494C0022D820466DB1B5FBF2F602FB1655E9B242
:10495C00092D94BF30315731C9B200F8011B3546CF
:10496C00F0E7024623443021934202D902F8011B9E
:10497C00FAE71A1A834238BF0022002383542046D8
:10498C00FFF7C8FF204670BD0020FCE738B5031EBA
:10499C000C4615460EDAB3F1004F4FF02D0214BF42
:1049AC005842184601230A702A461944FFF7C3FFE0
:1049BC00204638BD0123F9E710B504460068FFF71F
:1049CC0083FE204610BD10B50446006808B1FFF701
:1049DC007BFE0023C4E90133236010BD38B50446C7
:1049EC000D4600680131FFF777FE10B1C4E90005F0
:1049FC00012038BD10B50368044623B143688B42CF
:104A0C0001D3012010BD2046FFF7E8FF0028F9D0A4
:104A1C00A368002BF5D122681370F2E737B50D4669
:104A2C00114601920446FFF7E5FF019A28B920468A
:104A3C00FFF7C9FF204603B030BDA26029462068AD
:104A4C0000F06EFF2268A3680021D154F2E7002326
:104A5C0013B5C0E9003304468360037341B10846C3
:104A6C00019100F0BCFF019902462046FFF7D6FFEA
:104A7C00204602B010BD884210B5044605D00B6824
:104A8C002BB18A681946FFF7C9FF204610BDFFF706
:104A9C009AFFFAE710B500230446C0E9003383609F
:104AAC000373FFF7E8FF204610BD13B5044659B158
:104ABC000846019100F093FF019902462046FFF74A
:104ACC00ADFF204602B010BDFFF77DFFF9E710B532
:104ADC0004468AB00023C4E90033A360237308465C
:104AEC0001A9FFF753FF01A92046FFF7DEFF20467F
:104AFC000AB010BD70B505460E4609B9002070BD50
:104B0C006AB1846814442146FFF774FF0028F5D07D
:104B1C002868AB683146184400F03CFFAC600120BB
:104B2C00EDE710B58A6809680446FFF7E3FF10B992
:104B3C002046FFF748FF204610BD13B5044629B99F
:104B4C002046FFF740FF204602B010BD08460191F9
:104B5C0000F045FF019902462046FFF7CBFF0028E5
:104B6C00EED0F0E710B5036804469B689847A3683D
:104B7C00013BA3602BB923682046DB68BDE81040DD
:104B8C00184710BD10B50446006808B1FFF74EFC7D
:104B9C00204610BD0B68036013B15A6801325A608D
:104BAC00704710B50446006828B14368013B436068
:104BBC000BB9FFF7D7FF204610BD000010B5064C0F
:104BCC00002320462360FFF729FC2046034A0449B2
:104BDC00BDE8104000F08ABE58E603202CE6032006
:104BEC00914B0D00F8B506460D468F180024BD42BA
:104BFC000CD0336815F8011B9B6830469847031E90
:104C0C0001DB1C44F3E7002C08BF1C462046F8BD12
:104C1C0013B50446084659B1019100F0E0FE236833
:104C2C000199DB680246204602B0BDE810401847E7
:104C3C0002B010BD03689B68184738B50D210546B6
:104C4C00FFF7F8FF0A2104462846FFF7F3FF20443C
:104C5C0038BD30B58BB000238DF82430012A98BFB5
:104C6C000A2209AC0D46B1FBF2F101FB125303F021
:104C7C00FF03092B94BF30333733DBB2AA4204F85D
:104C8C00013DEFD92146FFF7C3FF0BB030BD2DE935
:104C9C00F04186B000AF05460E46381D142114466F
:104CAC003B60FFF721FD13280ED8391D2846FFF76E
:104CBC00AFFF04461EB12846FFF7BFFF0444204651
:104CCC001837BD46BDE8F08100F1080323F0070357
:104CDC00E846ADEB030D2246411C3B686846FFF7E6
:104CEC0003FD69462846FFF793FF0446C546E1E7F6
:104CFC00014B024A1A6070475CE60320625B0D00B0
:104D0C00024B1A68024B1A60704700BFC4E50320BF
:104D1C0060E603200021FFF719BC10B58368044638
:104D2C0013B1032201469847204610BD10B5044626
:104D3C00FFF7F3FF204610BD13B50B460246D0E932
:104D4C0000016C4684E8030093E8030082E803004A
:104D5C0094E8030083E8030002B010BD0348044A42
:104D6C0004490023836000F0C1BD00BF64E603204A
:104D7C002CE60320394D0D00014B1860704700BF25
:104D8C00C8E5032008B50B4B43B100F005FC0368E4
:104D9C001B699847002801DDAFF30080064B43B137
:104DAC0000F0BEFC03681B699847002801DDAFF3D7
:104DBC00008008BD000000000000000008B5FFF7EF
:104DCC00E1FFFFF723FB014B186008BDECE7032064
:104DDC000248034A0349121A00F0A2BD00F4032052
:104DEC0004F40320B05C0D0007B5002300931A46B1
:104DFC006FF07701FFF7CCFB03B05DF804FB00000C
:104E0C0007B543880A2B08D0502B0BD1094B1B68D4
:104E1C004BB103B05DF804EB1847FFF7E5FF03B0A7
:104E2C005DF804FB002300931A466FF07701FFF73F
:104E3C00AFFBF4E778E6032038B5124C1248134D5B
:104E4C000021FFF769FC2368AB42114B0CBF012218
:104E5C0000221A7002D0FFF7BBFF2560FFF7CEFAD5
:104E6C00044600F073FD0B4B13B12046AFF30080EA
:104E7C0000210848FFF710FCBDE838400648002127
:104E8C00FFF77CBB00F40320854D0D001E1C279AF8
:104E9C0074E60320000000000D4E0D00704700204A
:104EAC00704710B51021044600F025FD204610BDBA
:104EBC0008B5FFF7F6FF08BD30B500224FF69C741D
:104ECC00026084808D888C800C68858004600A6008
:104EDC0030BD10B504460068FFF7F6FB204610BD48
:104EEC0038B5C468F4B12378022B03D104F10C005B
:104EFC00FFF7EFFF656835B12846FFF70EFF10216D
:104F0C00284600F0F8FCA56835B12846FFF705FFE8
:104F1C001021284600F0EFFC20461421BDE8384053
:104F2C0000F0E9BC38BD07B50823ADF800300368C4
:104F3C008DF80230037A8DF8033000214368019319
:104F4C006846FFF7B1FB03B05DF804FB73B50E4682
:104F5C00044656F8043B00930D4601A83146FFF772
:104F6C0019FE019A009B6260236001A80023019343
:104F7C000093FFF716FE3046FFF713FE2846082174
:104F8C0000F0B9FC204602B070BD826810B50AB9B9
:104F9C0000F0B5FCBDE81040C368184708B50068C0
:104FAC0000F11001FFF7F1FF08BD826810B50AB9D6
:104FBC0000F0A5FCBDE81040C368184708B50068B0
:104FCC0000F11001FFF7F1FF08BD000038B5002318
:104FDC000446036010200D46FFF755F828B1012355
:104FEC00C0E90133024B0360C5602060204638BD28
:104FFC008C5B0D0038B5002383608B6804460D462E
:10500C002BB102229847EB68E360AB68A3602046A3
:10501C0038BD0000F0B589B004686846FFF74CFF56
:10502C004FF00203D4E84F2F002A03D1C4E8413FCC
:10503C000029F7D125D104F10C0569462846FFF764
:10504C003BFFBFF35B8F01236370002004F1080367
:10505C00BFF35B8F53E8006F43E80002002AF9D1DD
:10506C00BFF35B8F6EB1FFF779FA78B12946304602
:10507C00FFF78BFF3046FFF750FE1021304600F053
:10508C003AFC6846FFF725FF09B0F0BD314602A88F
:10509C00FFF7B0FFE068B4F9105008B100F082FCE3
:1050AC0006901020ADF81C50FEF7EDFF0546E8B158
:1050BC00002787601820FEF7E6FF044688B10146FA
:1050CC00876002A8FFF738FE049BA268A360059BCB
:1050DC00049206A9E268E36004F110000592FFF760
:1050EC00EBFE084BEB60084B2C60AB6006A8FFF79F
:1050FC00F0FE02A8FFF711FE002229460348FFF735
:10510C0035FAB7E7A94F0D0041520D0081570D003C
:10511C002DE9F0478AB005469DF848900C46174695
:10512C009846FFF7A9FA07AE824638BB4FF62E73A6
:10513C00059005A93046ADF81830FFF7BDFE1420D8
:10514C00FEF7A1FF044648B1022303700123C0E916
:10515C0001AA437031460C30FFF7AEFE28462146BB
:10516C0040F8044BFFF732FF3046FFF7B2FE05A8BC
:10517C00FFF7AFFE28460AB0BDE8F0870C234FF0CE
:10518C00000A1420CDE908AA0793FEF77CFF01461C
:10519C0028B1C0E901AA80F800A080F801A004A8F9
:1051AC000391FFF713FF224B08930820FEF76BFFC8
:1051BC00824628B1039B40F8043B04A9FFF7EAFCA4
:1051CC0000965FFA89F3424639462046CDF824A072
:1051DC00FFF75AFAB8B9039B5B7803F0FF0293B957
:1051EC004FF69C7305A903A80592ADF81830FFF78C
:1051FC0011FF05A8FFF76DFE05A80999FFF7A6FE9C
:10520C0006A8FFF7CEFC039B059304A906A8FFF79D
:10521C00C1FC059B069A2B606A60002306A80693C6
:10522C000593FFF7BEFC04A8FFF7BBFCA2E700BF89
:10523C0005530D00022AF8B5054607D0032A18D0ED
:10524C00012A01D10B6803600020F8BD18200E68FC
:10525C00FEF719FF044650B13146FFF7CBFE30691B
:10526C00B6F9147008B100F09DFB2061A7822C6088
:10527C00EAE70468002CE7D004F11000FFF729FEE0
:10528C002046FFF74AFD1821204600F034FBDBE7EF
:10529C0038B5002383608B6804460D462BB102227F
:1052AC009847EB68E360AB68A360204638BD022AE0
:1052BC0070B5044607D0032A12D0012A01D10B681D
:1052CC000360002070BD14200E68FEF7DCFE05465E
:1052DC0020B13146FFF7DCFF337C2B742560F0E7FF
:1052EC000468002CEDD02046FFF717FD1421204652
:1052FC0000F001FBE5E70000F0B589B004460D466F
:10530C0001A81146FFF722FEA4B124B21DB1284614
:10531C0000F048FB054601A803A90395ADF8104021
:10532C00FFF778FE03A8FFF7D4FD02A8FFF739FCBE
:10533C0009B0F0BD019D0123D5E84F2F002A03D100
:10534C00C5E8413F0029F7D1EFD12B73BFF35B8F39
:10535C006B702B1DBFF35B8F53E8006F43E800426B
:10536C00002AF9D1BFF35B8F002EDED02046FFF769
:10537C00F5F8074660B105F10C013046FFF715FE54
:10538C003046FFF7CAFC1021304600F0B4FACCE7E7
:10539C00314603A8FFF77CFF2B7B8DF81C301020C7
:1053AC00FEF771FE0546D0B187601420FEF76BFE48
:1053BC00044678B18760014603A8FFF7BDFC059B46
:1053CC00A268A360069B0592E268E3609DF81C301E
:1053DC0006922374064BEB60064B2C60AB6003A863
:1053EC00FFF79BFC002229460348FFF7BFF8C7E7ED
:1053FC00C94F0D00BB520D0081570D00704710B501
:10540C001821044600F077FA204610BDF0B5037D54
:10541C00062B8DB00E4600F104074FF0000412D09D
:10542C0000F1080515F8011D0A223046FFF711FCA2
:10543C00AF42044419D0002CF4D02E213046FFF793
:10544C00F9FB0444EEE72F236A4639460A208DF80F
:10545C000040FEF7F3FF684600F0C1FA33680246DD
:10546C00DB68694630469847044620460DB0F0BDCF
:10547C0010B5054B0446112240F8043B002100F006
:10548C005DFA204610BD00BFA85B0D000346074A1D
:10549C0010B543F8042B01F1100251F8044B43F8FA
:1054AC00044B9142F9D10A781A7010BDA85B0D001B
:1054BC0010B59DF8084044EA032343EA024242EA4D
:1054CC00016104234160037510BD13B5CB780093C3
:1054DC008B784A780978FFF7EBFF02B010BD417466
:1054EC007047704708B50021007CFFF707F840EAC9
:1054FC00E07008BD08B50121007CFEF7FFFF40EA13
:10550C00E07008BD08B5007CFEF7F0FF20EAE07003
:10551C0008BD08B5007CFEF7E1FF20EAE07008BD8D
:10552C0013B50446007C0191FEF7E0FF00280199B9
:10553C0001DC607C20B1207CFEF7E8FF20EAE07003
:10554C0002B010BD007CFEF7E9BF10B51421044673
:10555C0000F0D1F9204610BD10B54FF47A73044613
:10556C0008460021C4E90113044B23600123207475
:10557C0063741146FEF7A2FF204610BDBC5B0D0004
:10558C00007C0022FEF7A2BF10B5142204460021B5
:10559C0000F0D4F9204610BD10B5104C88B003A80B
:1055AC00FFF7F2FF2178BFF35B8F11F0010111D1EE
:1055BC0020460191FEF76BFD019958B103AA0848EA
:1055CC00FFF7CAFF2046FEF767FD064A0649044866
:1055DC0000F08CF9024808B010BD00BF7CE6032037
:1055EC0080E603202CE60320EF540D0000224068D7
:1055FC001146FEF7F9BF002240681146FFF714B8B8
:10560C00002240681146FFF71FB840680022FFF7E0
:10561C0013B84068002281F00101FEF7FDBF0023A2
:10562C0040681A461946FEF7E7BF0022406811464B
:10563C00FEF7CABF406800220221FEF7CDBF00234F
:10564C0040681A46FEF7B8BF084B10B5282422460E
:10565C001846002100F072F9054B04804FF0FF3220
:10566C00426004225A60034A1A6010BD9CE6032073
:10567C0094E60320EC5B0D0070474174704708B54D
:10568C00007CFEF713FF20EAE07008BD08B5007C33
:10569C00FEF7ECFE20EAE07008BD08B5007CFEF7D2
:1056AC00F5FE40EAE07008BD08B5007CFEF7E6FEAA
:1056BC0040EAE07008BD007CFEF7F0BE37B5457CD3
:1056CC0004462DB1207C03B0BDE83040FEF7C6BEC9
:1056DC00007C0191FEF7EAFE00280199F2DC2846D5
:1056EC0003B030BD10B51421044600F004F9204677
:1056FC0010BD000010B54FF0000C044608461146D2
:10570C004FF47A72C4E901C2044A22600122207467
:10571C0062741A46FEF79AFE204610BD205C0D00FE
:10572C0013B50E4C2178BFF35B8F11F0010112D130
:10573C0020460191FEF7ABFC019960B1084A094B78
:10574C000948FFF7D7FF2046FEF7A6FC074A084991
:10575C00054800F0CBF8044802B010BDC4E60320A5
:10576C00C8E603204CE70320D0E703202CE60320F7
:10577C0085560D0010B5836804460BB900F0BFF8D0
:10578C00C3689847A3681BB103222146204698475B
:10579C0020461021BDE8104000F0ADB80023406851
:1057AC001A46FEF709BF406800220221FEF714BF1B
:1057BC00002240681146FEF707BF002240681146E0
:1057CC00FEF712BF002340681A461946FEF714BFB5
:1057DC00002340681A461946FEF716BF406800229F
:1057EC0081F00101FEF718BF40680022FEF724BFCC
:1057FC00002240681146FEF727BF00224068114680
:10580C00FEF712BF2DE9F043002495B016460D4665
:10581C000746FFF72DFE214618220EA8009400F033
:10582C008DF84023CDE90C3421466B460CAA30464A
:10583C00FEF7DCFD0446002846D1024601216868CB
:10584C00FEF7D2FE0221804622466868FEF7CCFEA7
:10585C00009E81462146002E36D0002934D1736833
:10586C00022B03D00A2B0BD0F669F4E7B8F1000F2A
:10587C0004D0716938460431FFF727FE4146F3E73F
:10588C00B9F1000F01D14946EEE77469102201A865
:10589C0000F054F806238DF8143001AD04F1080320
:1058AC001834186859682A4603C20833A3421546AF
:1058BC00F7D101A906A807ADFFF7E8FD0FCD3C1DF8
:1058CC000FC42B682370DEE70098FEF787FD38467F
:1058DC0015B0BDE8F0830000024B034A1A600022A9
:1058EC005A607047E4E70320505C0D000B460146FC
:1058FC00184600F007B8FEF7C8BBFEF7C4BB08B5E6
:10590C00FEF7FAFE10B5054C13462CB10A460146BB
:10591C000220AFF3008010BD2046FCE70000000021
:10592C000A44914200F1FF3300D1704710B511F8D1
:10593C00014B03F8014F9142F9D110BD02440346CB
:10594C00934200D1704703F8011BF9E738B50D4BB2
:10595C001D68AB6B04467BB91820FEF7ADFE0A4AF6
:10596C000A4BA863C0E90023094B83600B23838196
:10597C0001220023C0E90423AB6B00221C615A6195
:10598C0038BD00BFC8E503200E33CDAB34126DE635
:10599C00ECDE0500034611F8012B03F8012B002A5D
:1059AC00F9D17047024B0146186800F003B800BFEC
:1059BC00C8E5032037B5044608460D4600F00FF83D
:1059CC00421C114620460192FEF79EFE044618B179
:1059DC00019A2946FFF7A4FF204603B030BD0346C9
:1059EC0013F8012B002AFBD1181A0138704700005C
:1059FC001D400D0059400D0081400D0085400D00EB
:105A0C00000000005A65726F20736C65657020741D
:105A1C00696D652C2061646A757374696E67207496
:105A2C006F203130207365636F6E647320736C6507
:105A3C0065702074696D652E00476F696E67207400
:105A4C006F20736C65657020666F72202564206D05
:105A5C00696E75746573202564207365636F6E645D
:105A6C00732E00436F6E6E656374696E6720746F7E
:105A7C002063656C6C756C6172202E2E2E20004399
:105A8C006F756C646E277420636F6E6E6563742023
:105A9C00746F2063656C6C756C61722E004F4B2EAD
:105AAC0000436F6E6E656374696E6720746F20635C
:105ABC006C6F7564202E2E2E2000436F756C646EF7
:105ACC00277420636F6E6E65637420746F20436C53
:105ADC006F75642E0063656C6C3A20002C2020637B
:105AEC006C6F75643A2000636F6E6E6563745469F5
:105AFC006D650000000000000000000093470D00E1
:105B0C0089470D007F470D0075470D0069470D0053
:105B1C005D470D0051470D0049470D003F470D00F3
:105B2C0035470D0011580D00776972696E67005387
:105B3C00797374656D20736C65657020636F6E6628
:105B4C00696775726174696F6E20697320696E760E
:105B5C00616C69642E006170700025592D256D2DC6
:105B6C0025645425483A254D3A2553257A0061730E
:105B7C006374696D65000000000000000000000007
:105B8C00A94E0D00AF4E0D00ED4E0D00BD4E0D009B
:105B9C00AB4E0D00000000000000000019540D0079
:105BAC0009540D000B540D00000000000000000013
:105BBC00EF540D0057550D002D550D00F14B0D00F8
:105BCC001F550D00F1540D0001550D0051550D00E0
:105BDC0011550D00EB540D000000000000000000FA
:105BEC004B560D0041560D0037560D00F9550D0062
:105BFC002B560D00F3400D001F560D0017560D00CF
:105C0C000D560D0003560D0011580D00000000003C
:105C1C000000000085560D00F1560D00C9560D0010
:105C2C00F14B0D0099560D00B5560D00A7560D0001
:105C3C00C3560D0087560D008B560D00000000005A
:105C4C0000000000A9570D00B3570D00BD570D0003
:105C5C00C7570D00D1570D00DD570D00E9570D004A
:105C6C00F5570D00FD570D0007580D0011580D008C
:105C7C0000000000AD430D009D470D00E5480D00F0
:105C8C00C94B0D00FD4C0D000D4D0D00694D0D0067
:105C9C0055560D00E5580D000000000000000000F6
:045CAC0000000000F4
:045CB00000000000F0
:105CB4007A5B0D00CCE5032000000000000000002A
:105CC40000000000000000000000000000000000D0
:105CD40000000000000000000000000000000000C0
:105CE40000000000000000000000000000000000B0
:105CF40000000000000000000000000000000000A0
:105D0400000000000000000000000000000000008F
:085D1400000000000000000087
:105D1C00FFFFFFFF00000102030405060708090A44
:105D2C000B0C0D0E0F101112131415161718191A3F
:085D3C001B1C1D1E1F20280086
:045D44007856341247
:04000003D000401CCD
:00000001FF
