:02000002D0002C
:1040000000400D00E45B0D00000006000D000501FE
:084010000401DB0700000000C1
:04401800DC580D0063
:10401C0009480A49884208B505D0094A824202D0AB
:10402C00121A01F013FC0748074A0021121A01F07A
:10403C001BFC014808BD00BFCCE50320545B0D0000
:10404C0034E6032038E60320F4E7032070B5074E6E
:10405C00074C00F017FDA41BA4080025A54200D1B5
:10406C0070BD56F8043B98470135F7E7285B0D0007
:10407C00485B0D0000F008B908B500F01BF9BDE86D
:10408C00084000F0C1BC00F08DBA00F093BA007883
:10409C00B0FA80F0400970470123037070470EB4EA
:1040AC0003B503AB002153F8042B019300F007FC7C
:1040BC0002B05DF804EB03B070470EB403B503AB6C
:1040CC00012153F8042B019300F0F9FB02B05DF8C9
:1040DC0004EB03B07047002340681A46194600F001
:1040EC0011BA0000F0B5051E8BB005DC00F0DEFD4A
:1040FC002449FFF7E2FF0A2500F0D8FD3C232249B2
:10410C00B5FBF3F203FB1253FFF7D7FF05AB049398
:10411C00012300268DF824301C4F1D49ADF8196081
:10412C0002231020CDE907668DF81B6005978DF8EA
:10413C00183000F058FF0446E8B11022314601F067
:10414C0093FB04234FF47A70A3804543089B2760AC
:10415C00A360E560089401A804A900F0BDFA0198D9
:10416C0008B100F027FA089840B184680C2100F0DF
:10417C0038FF2046F8E78DF82400ECE701200BB05F
:10418C00F0BD00BFF0580D0025590D0010000300C4
:10419C00245B0D0070B5194C064600F087FD1849DC
:1041AC00FFF77DFF00231A461946606800F0A2F95C
:1041BC00002360681A46194600F07CF9002500229D
:1041CC006068114600F08EF988B90135B54209DBFB
:1041DC0000F06CFD0B49FFF770FF0848FFF77BFF01
:1041EC00012070BD4FF47A7000F0CCFBE7E700F0D3
:1041FC005DFD0549FFF761FF0020F2E798E603201B
:10420C004F590D006B590D0089590D00F8B5064634
:10421C0000F04CFD1749184FFFF741FF00F0A2F9D1
:10422C00002500F0A7F90446E0B900F07DF801354F
:10423C00386000F08FF9B5420FDB104D00F036FD01
:10424C000F49FFF73AFF68682246022100F042F955
:10425C002846FFF740FF0220F8BD4FF47A7000F0BB
:10426C0091FBDEE700F022FD0649FFF726FF002058
:10427C00F2E700BF8D590D00F0E7032098E603200C
:10428C00A6590D0089590D0008B500F00FFD4FF42B
:10429C00165100F0FFFCB9EE0C0A00F049FB5A2055
:1042AC00FFF778FF20B9BDE808403C20FFF7AEBF10
:1042BC0008BD000030B55A2085B0FFF76BFFA0B9E0
:1042CC003C20FFF7A3FF044678B90A4D8DF80C008B
:1042DC00CDE9010001A800F007FC68682246022124
:1042EC0000F0F8F82846FFF7F6FE3C20FFF7FAFE40
:1042FC0005B030BD98E6032008B5024B1B689B68DF
:10430C00019308BD6802030008B5024B1B68DB680B
:10431C00019308BD6802030008B5024B1B685B687B
:10432C00019308BD1802030008B5024B1B685B69BA
:10433C00019308BD1802030008B5024B1B685B6CA7
:10434C00019308BD4802030008B5024B1B689B6C27
:10435C00019308BD4802030008B5024B1B685B695A
:10436C00019308BD6402030008B5024B1B681B686F
:10437C00019308BD3C02030008B5024B1B68DB68C7
:10438C00019308BD3C02030008B5024B1B681B6976
:10439C00019308BD3C02030008B5024B1B685B6926
:1043AC00019308BD3C02030008B5024B1B689B69D6
:1043BC00019308BD3C02030008B5024B1B68DB6986
:1043CC00019308BD3C02030008B5024B1B689B6AB5
:1043DC00019308BD3C02030008B5024B1B681B6827
:1043EC00019308BD4C02030008B5024B1B685B68C7
:1043FC00019308BD4C02030008B5024B1B681B69F6
:10440C00019308BD4C02030008B5024B1B685B69A5
:10441C00019308BD4C02030008B5024B1B689B6955
:10442C00019308BD4C02030008B5024B1B68DB6905
:10443C00019308BD4C02030008B5024B1B681B6AB4
:10444C00019308BD4C02030008B5024B1B681B6DA1
:10445C00019308BD6002030008B5024B1B685B6842
:10446C00019308BD2002030008B5024B1B685B6971
:10447C00019308BD2002030008B5034B1B68D3F859
:10448C008830019308BD00002002030008B5034BDF
:10449C001B68D3F89430019308BD00002002030080
:1044AC0008B5034B1B68D3F8AC30019308BD000072
:1044BC002002030008B5024B1B685B68019308BD22
:1044CC004002030008B5024B1B689B68019308BDB2
:1044DC004002030008B5024B1B68DB68019308BD62
:1044EC004002030008B5024B1B681B69019308BD11
:1044FC004002030008B5024B1B685B69019308BDC1
:10450C004002030008B5024B1B689B69019308BD70
:10451C004002030008B5024B1B68DB69019308BD20
:10452C004002030008B5024B1B681B6A019308BDCF
:10453C004002030008B5024B1B681B6B019308BDBE
:10454C004002030008B5024B1B685B6B019308BD6E
:10455C004002030008B5024B1B689B68019308BD21
:10456C004402030008B5024B1B68DB68019308BDCD
:10457C004402030008B5024B1B685B69019308BD3C
:10458C004402030008B5024B1B68DB6B019308BDAA
:10459C004402030008B5024B1B685B6C019308BD19
:1045AC004402030008B5024B1B681B68019308BD4D
:1045BC001C02030008B5024B1B685B68019308BD25
:1045CC001C02030008B5024B1B685B6A019308BD13
:1045DC001C02030008B5024B1B685B6C019308BD01
:1045EC001C020300002240681146FFF79BBF00220B
:1045FC0040681146FFF7A6BF40680022FFF79ABF3C
:10460C004068002281F00101FFF784BF002340685D
:10461C001A461946FFF776BF002340681A4619461A
:10462C00FFF768BF002240681146FFF75BBF00220E
:10463C0040681146FFF746BF406800220221FFF791
:10464C0049BF002340681A46FFF734BF024B0322D0
:10465C005A60024A1A6070473CE60320CC590D00A0
:10466C0010B50446006818B1FFF7A4FF00232360BF
:10467C0010BD10B50446FFF7F3FF204610BD38B54A
:10468C00B1F9043083800B460D4653F8062FC0F861
:10469C0006209B8843810446FFF7E2FF2B6813B189
:1046AC00236000232B60204638BD000038B50C4633
:1046BC000546FFF7D5FF44B12088FFF773FF28604C
:1046CC0028B12288214601F0C1F8002038BD0148EC
:1046DC00FCE700BFFCFEFFFFF0B52D4D0B7D044643
:1046EC008BB00846AF1D002B38D00B681B79002B04
:1046FC0034D00022274B049302A904300292ADF867
:10470C000C208DF80E20FFF7CBFEDDF80E30C5F82F
:10471C00063000B2BDF81230ADF80C00A88002993A
:10472C00BB802846FFF7C2FF02A8FFF799FF0023C2
:10473C002360A380A37123814FF6FF736381B5F9C6
:10474C000430A3803B68C4F80630BB8829686381B9
:10475C002046FFF7ABFF20460BB0F0BD0026202310
:10476C00CDE902360C4B00930C49334602AA322099
:10477C00FFF76AFE074B049302A94FF6F263044855
:10478C0002968DF80E60ADF80C30FFF778FFCBE792
:10479C0044E603200000FFFFFF590D00F8590D00FF
:1047AC0010B5094B094C022200201A60084B2060FE
:1047BC00A080A071A360FFF74FFE2046054A064972
:1047CC00BDE8104000F008BC50E6032044E603208E
:1047DC000000FFFF38E603207F460D0010B50446AD
:1047EC00006808B1FFF7B0FD204610BD10B5064CAF
:1047FC00002320462360FFF79FFD2046034A04490F
:10480C00BDE8104000F0E8BB54E6032038E6032076
:10481C00E9470D00F8B506460D468F180024BD4239
:10482C000CD0336815F8011B9B6830469847031E63
:10483C0001DB1C44F3E7002C08BF1C462046F8BDE6
:10484C0013B50446084659B1019101F039F82368B3
:10485C000199DB680246204602B0BDE810401847BB
:10486C0002B010BD03689B68184738B50D2105468A
:10487C00FFF7F8FF0A2104462846FFF7F3FF204410
:10488C0038BD30B58BB000238DF82430012A98BF89
:10489C000A2209AC0D46B1FBF2F101FB125303F0F5
:1048AC00FF03092B94BF30333733DBB2AA4204F831
:1048BC00013DEFD92146FFF7C3FF0BB030BD2DE909
:1048CC00F04186B000AF05460E46381D1421144643
:1048DC003B60FFF777FE13280ED8391D2846FFF7EB
:1048EC00AFFF04461EB12846FFF7BFFF0444204625
:1048FC001837BD46BDE8F08100F1080323F007032B
:10490C00E846ADEB030D2246411C3B686846FFF7B9
:10491C0059FE69462846FFF793FF0446C546E1E772
:10492C00014B024A1A60704758E60320265A0D00C4
:10493C00FAEE087AB4EEE70AF1EE10FA08B511D4E3
:10494C00F2EE0C7AB4EEE70AF1EE10FA0ADCDFEDC7
:10495C00067A60EE277A17EE900A00F035FF034BCB
:10496C00C3E9000108BD00BF0000614560E60320FB
:10497C00024B1A68024B1A60704700BFCCE503204B
:10498C005CE603200021FFF76FBD10B58368044679
:10499C0013B1032201469847204610BD10B50446BA
:1049AC00FFF7F3FF204610BD0348044A04490023D7
:1049BC00836000F011BB00BF68E6032038E60320DB
:1049CC00A9490D00014B1860704700BFD0E50320CA
:1049DC0008B50B4B43B100F069F903681B699847A4
:1049EC00002801DDAFF30080064B43B100F022FA42
:1049FC0003681B699847002801DDAFF3008008BDF0
:104A0C00000000000000000008B5FFF7E1FFFFF711
:104A1C008BFC014B186008BDF0E703200248034AE9
:104A2C000349121A00F012BF00F4032004F403200F
:104A3C00505B0D0007B5002300931A466FF0770109
:104A4C00FFF724FD03B05DF804FB000007B54388B5
:104A5C000A2B08D0502B0BD1094B1B684BB103B060
:104A6C005DF804EB1847FFF7E5FF03B05DF804FBB6
:104A7C00002300931A466FF07701FFF707FDF4E768
:104A8C007CE6032038B5124C1248134D0021FFF779
:104A9C00A1FD2368AB42114B0CBF012200221A70FE
:104AAC0002D0FFF7BBFF2560FFF736FC044600F091
:104ABC00E3FE0B4B13B12046AFF3008000210848F6
:104ACC00FFF760FDBDE8384006480021FFF7D4BC75
:104ADC0000F40320D1490D001E1C279A78E6032010
:104AEC0000000000594A0D0007B50823ADF800304E
:104AFC0003688DF80230037A8DF803300021436887
:104B0C0001936846FFF746FD03B05DF804FB704760
:104B1C0010B51821044600F064FA204610BDF0B51B
:104B2C00037D062B8DB00E4600F104074FF00004F8
:104B3C0012D000F1080515F8011D0A223046FFF7C6
:104B4C00A0FEAF42044419D0002CF4D02E213046E4
:104B5C00FFF788FE0444EEE72F236A4639460A2005
:104B6C008DF80040FFF7F8FB684600F0A9FE3368AB
:104B7C000246DB68694630469847044620460DB02D
:104B8C00F0BD000010B5054B0446112240F8043B63
:104B9C00002100F069FE204610BD00BF505A0D00E8
:104BAC000346074A10B543F8042B01F1100251F8E3
:104BBC00044B43F8044B9142F9D10A781A7010BD9A
:104BCC00505A0D0010B59DF8084044EA032343EAFF
:104BDC00024242EA016104234160037510BD13B522
:104BEC00CB7800938B784A780978FFF7EBFF02B00B
:104BFC0010BD41747047704708B50021007CFFF769
:104C0C000BFC40EAE07008BD08B50121007CFFF701
:104C1C0003FC40EAE07008BD08B5007CFFF7F4FB2C
:104C2C0020EAE07008BD08B5007CFFF7E5FB20EA40
:104C3C00E07008BD13B50446007C0191FFF7E4FB5E
:104C4C000028019901DC607C20B1207CFFF7ECFB93
:104C5C0020EAE07002B010BD007CFFF7EDBB10B590
:104C6C001421044600F0BDF9204610BD10B54FF4D8
:104C7C007A73044608460021C4E90113044B2360EF
:104C8C000123207463741146FFF7A6FB204610BD68
:104C9C00645A0D00007C0022FFF7A6BB10B514224D
:104CAC000446002100F0E0FD204610BD10B5104C6C
:104CBC0088B003A8FFF7F2FF2178BFF35B8F11F0E8
:104CCC00010111D120460191FFF7E1F9019958B189
:104CDC0003AA0848FFF7CAFF2046FFF7DDF9064A8A
:104CEC000649044800F078F9024808B010BD00BF2E
:104CFC0080E6032084E6032038E60320034C0D00F5
:104D0C00002240681146FFF7EDBB002240681146B7
:104D1C00FFF708BC002240681146FFF713BC40683F
:104D2C000022FFF707BC4068002281F00101FFF769
:104D3C00F1BB002340681A461946FFF7DBBB002283
:104D4C0040681146FFF7BEBB406800220221FFF706
:104D5C00C1BB002340681A46FFF7ACBB084B10B52B
:104D6C00282422461846002100F07EFD054B0480C5
:104D7C004FF0FF32426004225A60034A1A6010BDA1
:104D8C00A0E6032098E60320945A0D007047417466
:104D9C00704708B5007CFFF717FB20EAE07008BDF0
:104DAC0008B5007CFFF7F0FA20EAE07008BD08B502
:104DBC00007CFFF7F9FA40EAE07008BD08B5007C0A
:104DCC00FFF7EAFA40EAE07008BD007CFFF7F4BA9E
:104DDC0037B5457C04462DB1207C03B0BDE830408E
:104DEC00FFF7CABA007C0191FFF7EEFA002801998F
:104DFC00F2DC284603B030BD10B51421044600F097
:104E0C00F0F8204610BD000010B54FF0000C044621
:104E1C00084611464FF47A72C4E901C2044A226072
:104E2C000122207462741A46FFF79EFA204610BDC8
:104E3C00C85A0D0013B50E4C2178BFF35B8F11F0DF
:104E4C00010112D120460191FFF721F9019960B1BE
:104E5C00084A094B0948FFF7D7FF2046FFF71CF912
:104E6C00074A0849054800F0B7F8044802B010BDDD
:104E7C00C8E60320CCE6032050E70320D4E7032048
:104E8C0038E60320994D0D00002340681A46FFF7C1
:104E9C0011BB406800220221FFF71CBB00224068B6
:104EAC001146FFF70FBB002240681146FFF71ABBF3
:104EBC00002340681A461946FFF71CBB00234068C4
:104ECC001A461946FFF71EBB4068002281F001010B
:104EDC00FFF720BB40680022FFF72CBB0022406884
:104EEC001146FFF72FBB002240681146FFF71ABB93
:104EFC002DE9F043002495B016460D460746FFF702
:104F0C0041FE214618220EA8009400F0ADFC40236F
:104F1C00CDE90C3421466B460CAA3046FFF7F4F968
:104F2C000446002846D1024601216868FFF7DAFAE8
:104F3C000221804622466868FFF7D4FA009E81461B
:104F4C002146002E36D0002934D17368022B03D0B1
:104F5C000A2B0BD0F669F4E7B8F1000F04D0716995
:104F6C0038460431FFF73BFE4146F3E7B9F1000F39
:104F7C0001D14946EEE77469102201A800F074FCD7
:104F8C0006238DF8143001AD04F1080318341868A9
:104F9C0059682A4603C20833A3421546F7D101A922
:104FAC0006A807ADFFF7FCFD0FCD3C1D0FC42B6809
:104FBC002370DEE70098FFF79FF9384615B0BDE87F
:104FCC00F0830000024B034A1A6000225A607047BB
:104FDC00E8E70320F85A0D000B460146184600F08E
:104FEC0027BCFFF752B8FFF74EB8000081F0004124
:104FFC0002E000BF83F0004330B54FEA41044FEAB2
:10500C00430594EA050F08BF90EA020F1FBF54EA4C
:10501C00000C55EA020C7FEA645C7FEA655C00F0E8
:10502C00E2804FEA5454D4EB5555B8BF6D420CDDB9
:10503C002C4480EA020281EA030382EA000083EA3C
:10504C00010180EA020281EA0303362D88BF30BDDC
:10505C0011F0004F4FEA01314FF4801C4CEA113132
:10506C0002D0404261EB410113F0004F4FEA033391
:10507C004CEA133302D0524263EB430394EA050F1C
:10508C0000F0A780A4F10104D5F1200E0DDB02FA8B
:10509C000EFC22FA05F2801841F1000103FA0EF21F
:1050AC00801843FA05F359410EE0A5F120050EF1E5
:1050BC00200E012A03FA0EFC28BF4CF0020C43FA16
:1050CC0005F3C01851EBE37101F0004507D54FF023
:1050DC00000EDCF1000C7EEB00006EEB0101B1F573
:1050EC00801F1BD3B1F5001F0CD349085FEA3000B9
:1050FC004FEA3C0C04F101044FEA445212F5800FC4
:10510C0080F09A80BCF1004F08BF5FEA500C50F160
:10511C00000041EB045141EA050130BD5FEA4C0C43
:10512C00404141EB0101013C28BFB1F5801FE9D2A0
:10513C0091F0000F04BF01460020B1FA81F308BFC3
:10514C002033A3F10B03B3F120020CDA0C3208DD8F
:10515C0002F1140CC2F10C0201FA0CF021FA02F16A
:10516C000CE002F11402D8BFC2F1200C01FA02F1DA
:10517C0020FA0CFCDCBF41EA0C019040E41AA2BFFF
:10518C0001EB0451294330BD6FEA04041F3C1CDAC7
:10519C000C340EDC04F11404C4F1200220FA04F0E7
:1051AC0001FA02F340EA030021FA04F345EA030191
:1051BC0030BDC4F10C04C4F1200220FA02F001FA53
:1051CC0004F340EA0300294630BD21FA04F02946D5
:1051DC0030BD94F0000F83F4801306BF81F480116E
:1051EC000134013D4EE77FEA645C18BF7FEA655CE1
:1051FC0029D094EA050F08BF90EA020F05D054EAB3
:10520C00000C04BF1946104630BD91EA030F1EBFB7
:10521C000021002030BD5FEA545C05D140004941BB
:10522C0028BF41F0004130BD14F580043CBF01F5AE
:10523C00801130BD01F0004545F0FE4141F4700194
:10524C004FF0000030BD7FEA645C1ABF194610466F
:10525C007FEA655C1CBF0B46024650EA013406BF70
:10526C0052EA033591EA030F41F4002130BD00BF2F
:10527C0090F0000F04BF0021704730B54FF48064EC
:10528C0004F132044FF000054FF0000150E700BF6D
:10529C0090F0000F04BF0021704730B54FF48064CC
:1052AC0004F1320410F0004548BF40424FF00001B9
:1052BC003EE700BF42004FEAE2014FEA31014FEAFC
:1052CC0002701FBF12F07F4393F07F4F81F060514B
:1052DC00704732F07F4208BF704793F07F4F04BF96
:1052EC0041F40021704730B54FF4607401F0004573
:1052FC0021F000411CE700BF50EA010208BF7047D3
:10530C0030B54FF000050AE050EA010208BF7047C3
:10531C0030B511F0004502D5404261EB41014FF42C
:10532C00806404F132045FEA915C3FF4D8AE4FF034
:10533C0003025FEADC0C18BF03325FEADC0C18BF17
:10534C00033202EBDC02C2F1200300FA03FC20FA68
:10535C0002F001FA03FE40EA0E0021FA02F11444B5
:10536C00BDE600BF70B54FF0FF0C4CF4E06C1CEACE
:10537C0011541DBF1CEA135594EA0C0F95EA0C0F3F
:10538C0000F0DEF82C4481EA030621EA4C5123EAB2
:10539C004C5350EA013518BF52EA033541F48011E1
:1053AC0043F4801338D0A0FB02CE4FF00005E1FB94
:1053BC0002E506F00042E0FB03E54FF00006E1FBDE
:1053CC0003569CF0000F18BF4EF0010EA4F1FF0421
:1053DC00B6F5007F64F5407404D25FEA4E0E6D4161
:1053EC0046EB060642EAC62141EA55514FEAC52072
:1053FC0040EA5E504FEACE2EB4F1FD0C88BFBCF5EE
:10540C00E06F1ED8BEF1004F08BF5FEA500E50F19E
:10541C00000041EB045170BD06F0004646EA010164
:10542C0040EA020081EA0301B4EB5C04C2BFD4EB96
:10543C000C0541EA045170BD41F480114FF0000E8F
:10544C00013C00F3AB8014F1360FDEBF002001F0FD
:10545C00004170BDC4F10004203C35DA0C341BDC77
:10546C0004F11404C4F1200500FA05F320FA04F049
:10547C0001FA05F240EA020001F0004221F000417D
:10548C0010EBD37021FA04F642EB06015EEA430EF0
:10549C0008BF20EAD37070BDC4F10C04C4F1200520
:1054AC0000FA04F320FA05F001FA04F240EA0200D3
:1054BC0001F0004110EBD37041F100015EEA430EA4
:1054CC0008BF20EAD37070BDC4F1200500FA05F2C4
:1054DC004EEA020E20FA04F301FA05F243EA020343
:1054EC0021FA04F001F0004121FA04F220EA020052
:1054FC0000EBD3705EEA430E08BF20EAD37070BD98
:10550C0094F0000F0FD101F00046400041EB010177
:10551C0011F4801F08BF013CF7D041EA060195F059
:10552C00000F18BF704703F00046520043EB030313
:10553C0013F4801F08BF013DF7D043EA0603704700
:10554C0094EA0C0F0CEA135518BF95EA0C0F0CD00B
:10555C0050EA410618BF52EA4306D1D181EA030151
:10556C0001F000414FF0000070BD50EA410606BF4B
:10557C001046194652EA430619D094EA0C0F02D190
:10558C0050EA013613D195EA0C0F05D152EA0336D5
:10559C001CBF104619460AD181EA030101F00041F3
:1055AC0041F0FE4141F470014FF0000070BD41F03C
:1055BC00FE4141F4780170BD70B54FF0FF0C4CF416
:1055CC00E06C1CEA11541DBF1CEA135594EA0C0F35
:1055DC0095EA0C0F00F0A7F8A4EB050481EA030E82
:1055EC0052EA03354FEA013100F088804FEA033369
:1055FC004FF0805545EA131343EA12634FEA022237
:10560C0045EA111545EA10654FEA00260EF00041F7
:10561C009D4208BF964244F1FD0404F5407402D249
:10562C005B084FEA3202B61A65EB03055B084FEADA
:10563C0032024FF480104FF4002CB6EB020E75EBD7
:10564C00030E22BFB61A754640EA0C005B084FEAFF
:10565C003202B6EB020E75EB030E22BFB61A75467C
:10566C0040EA5C005B084FEA3202B6EB020E75EBC7
:10567C00030E22BFB61A754640EA9C005B084FEA3F
:10568C003202B6EB020E75EB030E22BFB61A75464C
:10569C0040EADC0055EA060E18D04FEA051545EA3B
:1056AC0016754FEA06164FEAC30343EA52734FEAE4
:1056BC00C2025FEA1C1CC0D111F4801F0BD141EA5D
:1056CC0000014FF000004FF0004CB6E711F4801FC2
:1056DC0004BF01430020B4F1FD0C88BFBCF5E06FA2
:1056EC003FF6AFAEB5EB030C04BFB6EB020C5FEAB2
:1056FC00500C50F1000041EB045170BD0EF0004E07
:10570C004EEA113114EB5C04C2BFD4EB0C0541EA38
:10571C00045170BD41F480114FF0000E013C90E635
:10572C0045EA060E8DE60CEA135594EA0C0F08BFF9
:10573C0095EA0C0F3FF43BAF94EA0C0F0AD150EAF8
:10574C0001347FF434AF95EA0C0F7FF425AF10468B
:10575C0019462CE795EA0C0F06D152EA03353FF4B3
:10576C00FDAE1046194622E750EA410618BF52EA30
:10577C0043067FF4C5AE50EA41047FF40DAF52EA04
:10578C0043057FF4EBAE12E74A0011D212F500127A
:10579C0011D20DD56FF47873B3EB62520ED44FEA7D
:1057AC00C12343F0004343EA505323FA02F07047FD
:1057BC004FF00000704750EA013002D14FF0FF303B
:1057CC0070474FF00000704707EE900AF5EEC07A74
:1057DC00F1EE10FA01D400F00BB8F1EE677A08B5CF
:1057EC0017EE900A00F004F8404261EB410108BD4D
:1057FC00D0B5FFF75FFD0C4B002206460F46FFF7B6
:10580C00B1FDFFF7C1FF0446FFF732FD074B002245
:10581C00FFF7A8FD02460B4630463946FFF7EAFB78
:10582C00FFF7B2FF2146D0BD0000F03D0000F04173
:10583C0010B5054C13462CB10A4601460220AFF3B5
:10584C00008010BD2046FCE7000000000A44914295
:10585C0000F1FF3300D1704710B511F8014B03F87C
:10586C00014F9142F9D110BD02440346934200D13D
:10587C00704703F8011BF9E738B50D4B1D68AB6B8E
:10588C0004467BB91820FEF78DFE0A4A0A4BA86322
:10589C00C0E90023094B83600B2383810122002381
:1058AC00C0E90423AB6B00221C615A6138BD00BFF8
:1058BC00D0E503200E33CDAB34126DE6ECDE0500E3
:1058CC00034613F8012B002AFBD1181A0138704734
:1058DC001D400D0059400D0081400D0085400D000C
:1058EC00000000005A65726F20736C65657020743F
:1058FC00696D652C2061646A757374696E672074B8
:10590C006F203130207365636F6E647320736C6528
:10591C0065702074696D652E00476F696E67207421
:10592C006F20736C65657020666F72202564206D26
:10593C00696E75746573202564207365636F6E647E
:10594C00732E00436F6E6E656374696E6720746F9F
:10595C002063656C6C756C6172202E2E2E200043BA
:10596C006F756C646E277420636F6E6E6563742044
:10597C00746F2063656C6C756C61722E004F4B2ECE
:10598C0000436F6E6E656374696E6720746F20637D
:10599C006C6F7564202E2E2E2000436F756C646E18
:1059AC00277420636F6E6E65637420746F20436C74
:1059BC006F75642E00000000000000000000000065
:1059CC004F460D0045460D003B460D0031460D007F
:1059DC0025460D0019460D000D460D0005460D001F
:1059EC00FB450D00F1450D00FD4E0D007769726908
:1059FC006E670053797374656D20736C65657020E8
:105A0C00636F6E66696775726174696F6E20697316
:105A1C0020696E76616C69642E0061707000255986
:105A2C002D256D2D25645425483A254D3A255325B1
:105A3C007A0061736374696D6500000000000000FA
:105A4C00000000002B4B0D001B4B0D001D4B0D00DF
:105A5C000000000000000000034C0D006B4C0D001A
:105A6C00414C0D0021480D00334C0D00054C0D0030
:105A7C00154C0D00654C0D00254C0D00FF4B0D0019
:105A8C0000000000000000005F4D0D00554D0D00A2
:105A9C004B4D0D000D4D0D003F4D0D00E3400D0025
:105AAC00334D0D002B4D0D00214D0D00174D0D00EC
:105ABC00FD4E0D000000000000000000994D0D008F
:105ACC00054E0D00DD4D0D0021480D00AD4D0D00B6
:105ADC00C94D0D00BB4D0D00D74D0D009B4D0D005C
:105AEC009F4D0D000000000000000000954E0D00C1
:105AFC009F4E0D00A94E0D00B34E0D00BD4E0D0076
:105B0C00C94E0D00D54E0D00E14E0D00E94E0D00B5
:105B1C00F34E0D00FD4E0D000000000059460D0027
:105B2C00AD470D00F9470D002D490D007D490D00C5
:105B3C00B5490D00694D0D00D14F0D00000000005E
:045B4C000000000055
:045B50000000000051
:105B54003E5A0D00D4E503200000000000000000C0
:105B64000000000000000000000000000000000031
:105B74000000000000000000000000000000000021
:105B84000000000000000000000000000000000011
:105B94000000000000000000000000000000000001
:105BA40000000000000000000000000000000000F1
:085BB4000000000000000000E9
:105BBC00FFFFFFFF00000102030405060708090AA6
:105BCC000B0C0D0E0F101112131415161718191AA1
:085BDC001B1C1D1E1F202800E8
:045BE40078563412A9
:04000003D000401CCD
:00000001FF
