:020000040808EA
:100000000000080880250808000006000A00050115
:080010000402DB070000000000
:04001800841D080833
:10001C0008B5024B1B685B6C019308BD2C000608ED
:10002C0008B5024B1B689B6D019308BD2C0006089C
:10003C0008B5024B1B68DB6D019308BD2C0006084C
:10004C0008B5024B1B685B6E019308BD2C000608BB
:10005C0009480A4908B5884205D0094A824202D0AB
:10006C00121A01F001F90748074A0021121A01F08F
:10007C0009F9064808BD00BF0000002084230808C9
:10008C00D4010020D8010020B4020020B4020020CA
:10009C0070B500F0EBFD0025054E064CA41BA40822
:1000AC00A54200D170BD56F8043B98470135F7E7DF
:1000BC00602308087C23080800F027B808B500F076
:1000CC002DF8BDE8084000F093BD00F05DBA00F0DB
:1000DC0063BA0078B0FA80F04009704701230370CE
:1000EC0070470EB403B503AB53F8042B01210193F5
:1000FC0000F0B6FB02B05DF804EB03B070470023D0
:10010C0040681A46194600F0F7B908B500F08CFEA5
:10011C00BDE808404FF4165100F07ABE2DE9F04FBF
:10012C002424AFB06F4904A800F0E6FA00F07CFE7E
:10013C0010226D49FFF7D5FF04A908A80823002257
:10014C0000F010FB04A90CA81123092200F00AFBF3
:10015C001423122204A910A800F004FB00F064FE82
:10016C00089900F056FB00F05FFE0C9900F051FB73
:10017C0000F05AFE109900F04CFB224600211CA8FE
:10018C0001F080F82246594C002125A801F07AF89C
:10019C0021461CAA089801F075FC25AA21460C984A
:1001AC0001F070FC1CA8FFF743FF064625A8FFF7DB
:1001BC003FFF03A905460A22109801F0EDFC044606
:1001CC0000F032FE22464A49FFF78BFF00F093FC09
:1001DC003C23471BA5EB060997FBF3F899FBF3F3BC
:1001EC0098FBF4F893FBF4F400F01EFE4FF0000BB8
:1001FC008246404918A800F07FFA32465B4614A8A4
:10020C0000F076FB14A918A800F0A0FA016850467B
:10021C0000F0FFFA14A800F025FA18A800F022FA52
:10022C0000F002FE3449824618A800F065FA2A460E
:10023C005B4614A800F05CFB14A918A800F086FA21
:10024C000168504600F0E5FA14A800F00BFA18A863
:10025C0000F008FA00F0E8FD2849824618A800F0E2
:10026C004BFA00F048FC2649C3170246CDF800B003
:10027C0014A800F0E1FB14A918A800F067FA0168B3
:10028C00504600F0C6FA14A800F0ECF918A800F0DB
:10029C00E9F900F0C9FD3A461A49FFF722FF00F0D0
:1002AC00C3FD2B4632461849CDF80090FFF719FFD5
:1002BC0000F0BAFD234642461449FFF712FF4EF6F2
:1002CC00602000F033FC10A800F0CCF90CA800F072
:1002DC00C9F908A800F0C6F904A800F0C3F92FB0BA
:1002EC00BDE8F08F981D0808AD1D0808C21D080850
:1002FC00CB1D0808E41D0808F01D0808FA1D0808A5
:10030C00F0010020051E08081E1E08084E1E0808D5
:10031C0008B5024B1B685B68019308BD9C0104087F
:10032C0008B5024B1B685B69019308BD9C0104086E
:10033C0008B5024B1B689B6D019308BD9C0104081A
:10034C0008B5024B1B685B6E019308BD9C01040849
:10035C0008B5024B1B689B69019308BDC4010408D6
:10036C0008B5024B1B685B6A019308BDC401040805
:10037C0008B5024B1B689B6A019308BDC4010408B5
:10038C0008B5024B1B68DB6A019308BDC401040865
:10039C0008B5024B1B681B6B019308BDC401040814
:1003AC0008B5024B1B685B6B019308BDC4010408C4
:1003BC0008B5024B1B681B6C019308BDC4010408F3
:1003CC0008B5024B1B68DB6B019308BD20000608C7
:1003DC0008B5024B1B681B68019308BD1C0006087E
:1003EC0008B5024B1B685B68019308BD1C0006082E
:1003FC0008B5024B1B681B69019308BD1C0006085D
:10040C0008B5024B1B685B69019308BD1C0006080C
:10041C0008B5024B1B689B69019308BD1C000608BC
:10042C0008B5024B1B68DB69019308BD1C0006086C
:10043C0008B5024B1B681B6A019308BD1C0006081B
:10044C0008B5024B1B681B68019308BDA401040886
:10045C0008B5024B1B685B68019308BDA401040836
:10046C0008B5024B1B685B69019308BDA401040825
:10047C0008B5024B1B689B6D019308BDA4010408D1
:10048C0008B5034B1B68D3F89030019308BD0000EE
:10049C00A401040808B5034B1B68D3F89C300193E6
:1004AC0008BD0000A401040808B5024B1B685B687A
:1004BC00019308BDC801040808B5024B1B689B6872
:1004CC00019308BDC801040808B5024B1B68DB6822
:1004DC00019308BDC801040808B5024B1B681B69D1
:1004EC00019308BDC801040808B5024B1B685B6981
:1004FC00019308BDC801040808B5024B1B689B6931
:10050C00019308BDC801040808B5024B1B68DB69E0
:10051C00019308BDC801040808B5024B1B681B6A8F
:10052C00019308BDC801040808B5024B1B681B6B7E
:10053C00019308BDC801040808B5024B1B685B6B2E
:10054C00019308BDC801040808B5024B1B689B68E1
:10055C00019308BDCC01040808B5024B1B685B690C
:10056C00019308BDCC01040808B5024B1B681B6B3A
:10057C00019308BDCC01040808B5024B1B68DB6B6A
:10058C00019308BDCC01040808B5024B1B681B681D
:10059C00019308BDA001040808B5024B1B685B68F9
:1005AC00019308BDA001040808B5024B1B689B68A9
:1005BC00019308BDA001040808B5024B1B681B6918
:1005CC00019308BDA001040808B5024B1B68DB6948
:1005DC00019308BDA001040808B5024B1B685B6AB7
:1005EC00019308BDA001040808B5024B1B68DB6B26
:1005FC00019308BDA001040808B5024B1B685B6C95
:10060C00019308BDA001040810B50446006818B198
:10061C00FFF7C2FF0023236010BD10B50446FFF79F
:10062C00F3FF204610BD00000222002010B5084B3D
:10063C00084C1A60084B2060A080A071A360FFF7E3
:10064C0007FF2046BDE81040044A054900F0B6BD3E
:10065C00E8010020DC0100200000FFFFD801002091
:10066C002706080810B504460068FFF795FF2046DA
:10067C0010BD10B50446006808B1FFF78DFF0023CC
:10068C00C4E90133236010BD38B504460D4600683B
:10069C000131FFF789FF10B1C4E90005012038BD15
:1006AC0010B50368044623B143688B4201D3012083
:1006BC0010BD2046FFF7E8FF0028F9D0A368002BF7
:1006CC00F5D122681370F2E770B50E461146044658
:1006DC001546FFF7E5FF20B92046FFF7CAFF204675
:1006EC0070BD2A4631462068A56000F0BDFD002192
:1006FC002268A368D154F2E738B5002304460D46AE
:10070C00C0E900338360037339B1084600F0F8FD8B
:10071C00294602462046FFF7D7FF204638BD70B564
:10072C0005460E4609B9002070BD6AB184681444B0
:10073C002146FFF7B5FF0028F5D02868AB68314695
:10074C00184400F0D5FDAC600120EDE710B58A68C7
:10075C0009680446FFF7E3FF10B92046FFF789FF4D
:10076C00204610BDF8B51D469A4288BF13460F4669
:10077C00144688BF2C460B4988BF1D460646FFF71A
:10078C00BBFFBA68A2420AD33968AA4294BFC4EB31
:10079C000202C4EB050230462144FFF795FF3046B8
:1007AC00F8BD00BFB71F0808F8B506460D46002473
:1007BC008F18BD420CD0336830469B6815F8011B6E
:1007CC009847031E01DB1C44F3E7002C08BF1C46B2
:1007DC002046F8BD70B505460C46084649B100F0F8
:1007EC008FFD2B68024621462846BDE87040DB6829
:1007FC00184770BD03689B68184738B50D2105462E
:10080C00FFF7F8FF0A2104462846FFF7F3FF2044C0
:10081C0038BD38B50546FFF7DDFF04462846FFF71F
:10082C00ECFF204438BD0023012A98BF0A2230B5C2
:10083C008BB00C468DF8243009A92546B4FBF2F494
:10084C0004FB1253DBB2092B94BF30333733DBB2CA
:10085C00AA4201F8013DF0D9FFF7BCFF0BB030BD47
:10086C002DE9F04186B000AF05460E46381D142127
:10087C0014463B60FFF7B0FE13280ED82846391DEE
:10088C00FFF7A8FF04461EB12846FFF7B6FF044445
:10089C0020461837BD46BDE8F08100F1080323F06F
:1008AC000703E846ADEB030D2246411C3B68684646
:1008BC00FFF792FE69462846FFF78CFF0446C546B3
:1008CC00E1E70000014B024A1A607047EC0100207E
:1008DC008E1E080808B50020FFF746FE28B1FFF76A
:1008EC003BFE80F00100C0B208BD0120FCE7000017
:1008FC0030B50446184893B0D0E90010521840EBBC
:10090C00030316480025D0E90010521840EB0303EE
:10091C00CDE90023242200210DEB020000F0B2FCF3
:10092C0009A96846FFF77CFB1622294603A8029505
:10093C0000F0A8FC02A909A800F062FC02A800F0D3
:10094C00DFFC12AB184400F8415C02A92046FFF70B
:10095C00D3FE204613B030BD00020020F801002069
:10096C002DE9F04FA5B00746884614A811463F2242
:10097C001D4600F0CDFC002314A88DF88F3000F03C
:10098C00BFFC04465DBB2A4903A800F0B1FC00255E
:10099C0014AE04F1FF3BAB4536D9B14619F8013B17
:1009AC0005F1010A252B17D173787A2B14D103A8E2
:1009BC0000F0A6FC044614AB28181844ABEB050257
:1009CC00B11C00F051FC224603A9304600F04CFC4F
:1009DC0014A800F095FC04464E465546D9E73C2138
:1009EC0095FBF1F3002BB8BF5B42B3FBF1F201FBBB
:1009FC00123300934FF46163102195FBF3F30D4A0E
:100A0C0003A8FFF7E1FDC2E700212E2208A80791F9
:100A1C0000F038FC434614AA322107A8FFF710FB5C
:100A2C00384607A9FFF768FE384625B0BDE8F08FB9
:100A3C00921E0808941E0808F0B58DB0129D04464D
:100A4C00CDE9002315B9194B1D682DB1184B28465B
:100A5C00196800F043FC38B9DDE900232046FFF7A4
:100A6C0047FF20460DB0F0BD0099124E124FD6E94B
:100A7C0000325B18019941EB0202D7E900011B1807
:100A8C0041EB0202CDE900320021242203A800F040
:100A9C00F9FB03A96846FFF7C3FA32683B682046A6
:100AAC00134403A92A46FFF75BFFDAE7F4010020A1
:100ABC000000002000020020F801002010B50020EA
:100ACC00FFF736FC0446A0B9FFF7BAFC012810D199
:100ADC002046FFF7CDFC60B9FFF7FCFE10B9FFF71D
:100AEC0033FDF9E7FFF7F6FEBDE810400020FFF7F5
:100AFC001FBC204610BD1FB5FFF7E0FF10220021E0
:100B0C00684600F0BFFB00216846FFF719FC00980F
:100B1C0005B05DF804FB0000024B1A68024B1A602A
:100B2C00704700BF00000020F40100200021FFF7F7
:100B3C0097BC10B58368044613B10322014698474D
:100B4C00204610BD10B50446FFF7F3FF204610BD3C
:100B5C0000230348034A0449836000F02FBB00BF05
:100B6C0008020020D8010020510B0808014B186026
:100B7C00704700BF0400002008B5174B43B100F0CC
:100B8C0053F903681B699847002801DDAFF3008017
:100B9C00124B43B100F056FA03681B6998470028C2
:100BAC0001DDAFF300800E4B0BB1AFF300800D4BAA
:100BBC000BB1AFF300800C4B0BB1AFF300800B4BC0
:100BCC0043B100F061F903681B699847002801DD07
:100BDC00AFF3008008BD00BF000000000000000063
:100BEC0000000000000000000000000000000000F9
:100BFC0008B5FFF7C1FFFFF793FB014B186008BD69
:100C0C00A80200200248034A0349121A00F02CBB28
:100C1C00004002400440024080230808002307B52E
:100C2C001A466FF077010093FFF734FC03B05DF8C0
:100C3C0004FB000007B543880A2B08D0502B0BD1BE
:100C4C00094B1B684BB103B05DF804EB1847FFF779
:100C5C00E5FF03B05DF804FB00231A466FF0770143
:100C6C000093FFF717FCF4E71C02002038B5124C78
:100C7C0000211248FFF7C0FC114D2368AB420CBF9A
:100C8C00012200220F4B1A7002D0FFF7BBFF256028
:100C9C00FFF73EFB044600F0FDFA0B4B13B1204668
:100CAC00AFF3008000210848FFF766FCBDE8384030
:100CBC0000210648FFF7E4BB00400240790B08080E
:100CCC001E1C279A1802002000000000410C080886
:100CDC00704710B50446082100F075FA204610BD87
:100CEC00F8B50E46002400F10807051D17F8011D84
:100CFC000A223046FFF797FDAF42044401D120464B
:100D0C00F8BD002CF2D02E213046FFF773FD0444C1
:100D1C00ECE70000024A026000224260704700BF0C
:100D2C00C41E0808024A02600A684260704700BF8D
:100D3C00C41E0808014AC0E900217047C41E0808F7
:100D4C0010B59DF8084044EA032444EA024444EAFE
:100D5C000164446010BD000037B5044D05609DF87A
:100D6C0018500095FFF7ECFF03B030BDC41E080807
:100D7C0041747047704708B50021007CFFF748FBB1
:100D8C0040EAE07008BD08B50121007CFFF740FB8C
:100D9C0040EAE07008BD08B5007CFFF731FB20EAA3
:100DAC00E07008BD08B5007CFFF722FB20EAE0707C
:100DBC0008BD38B50446007C0D46FFF721FB002822
:100DCC0001DC607C28B12946207CFFF729FB20EA56
:100DDC00E07038BD007CFFF72BBB10B50446142126
:100DEC0000F0F1F9204610BD10B54FF47A730446AB
:100DFC0008460021C4E90113044B2074236001232D
:100E0C0011466374FFF7E4FA204610BDD81E08089B
:100E1C000022007CFFF7E4BA10B50446142200212E
:100E2C0000F030FA204610BD30B50F4D87B001A848
:100E3C00FFF7F2FF2978BFF35B8F11F0010410D19B
:100E4C002846FFF746F960B1214601AA0748FFF78B
:100E5C00CBFF2846FFF742F9054A0649034800F044
:100E6C00ADF9024807B030BD200200202802002056
:100E7C00D8010020810D080810B504461422002169
:100E8C0000F000FA204610BD10B50F4C86B001A83A
:100E9C00FFF7F2FF2378BFF35B8FDB0710D42046FC
:100EAC00FFF717F960B1012101AA0848FFF79CFF71
:100EBC002046FFF713F9064A0649044800F07EF96C
:100ECC00024806B010BD00BF240200203C020020E6
:100EDC00D8010020810D0808002240681146FFF758
:100EEC00FBBAF0B5002685B0044610460F461546F1
:100EFC00039600F005FA7B6881B20096284603AA97
:100F0C00FFF75EFA30B131462046FFF713FF20465B
:100F1C0005B0F0BD204603A9FFF704FFF7E7002258
:100F2C0040681146FFF7F8BA002240681146FFF7F7
:100F3C0003BB00224068FFF7F7BA0022406881F03B
:100F4C000101FFF7E1BA002340681A461946FFF782
:100F5C00CBBA002240681146FFF7AEBA002202213C
:100F6C004068FFF7B1BA002340681A46FFF79CBAF5
:100F7C0010B52824074B22461846002100F082F9B0
:100F8C004FF0FF3242600422034B04805A60034A44
:100F9C001A6010BD5802002050020020081F0808DB
:100FAC0070474174704708B5007CFFF701FA20EADE
:100FBC00E07008BD08B5007CFFF7DAF920EAE070B4
:100FCC0008BD08B5007CFFF7E3F940EAE07008BD06
:100FDC0008B5007CFFF7D4F940EAE07008BD007C4E
:100FEC00FFF7DEB970B5467C04460D462EB1294696
:100FFC00207CBDE87040FFF7B3B9007CFFF7D8F94F
:10100C000028F4DC304670BD10B50446142100F005
:10101C00DAF8204610BD00004FF0000C10B5044665
:10102C00084611464FF47A72C4E901C2044A20748E
:10103C002260012262741A46FFF78AF9204610BD1D
:10104C003C1F0808F8B51A4C26684EB98420FFF7E7
:10105C003CF8054618B18422314600F013F925609E
:10106C00144D2F684FB98420FFF72FF8064618B19E
:10107C008422394600F006F92E600F4F3978BFF301
:10108C005B8F11F0010611D13846FFF722F868B1D9
:10109C00314622682B680948FFF7BEFF3846FFF738
:1010AC001DF8074A0749054800F088F80348F8BDC1
:1010BC008402002088020020800200208C02002084
:1010CC00D8010020AD0F0808002340681A46FFF72E
:1010DC00EBB9002202214068FFF7F6B90022406804
:1010EC001146FFF7E9B9002240681146FFF7F4B941
:1010FC00002340681A461946FFF7F6B900234068EA
:10110C001A461946FFF7F8B90022406881F0010130
:10111C00FFF7FAB900224068FFF706BA00224068D0
:10112C001146FFF709BA002240681146FFF7F4B9DF
:10113C0070B51546002686B0044604A8FFF7EAFDF4
:10114C002846039600F0DCF80A4B009681B25B68E7
:10115C00284603AAFFF734F930B131462046FFF791
:10116C00E9FD204606B070BD204603A9FFF7DAFD65
:10117C00F7E700BF50020020024B034A1A6000221E
:10118C005A607047A00200206C1F0808002313B59A
:10119C00074C1A46194620460093FFF7DDFD204602
:1011AC00044A054902B0BDE8104000F007B800BF82
:1011BC00AC020020D8010020DD0C08080B460146CB
:1011CC00184600F043B8FEF782BF000053B94AB985
:1011DC00002908BF00281CBF4FF0FF314FF0FF3033
:1011EC0000F00CB8ADF1080C6DE904CEFEF710FF61
:1011FC00DDF804E0DDE9022304B07047704700BF5E
:10120C0010B50C46416986B001F26C7103698269B4
:10121C000491016803EB43030391416802EB420222
:10122C00029181680191C1682046009104490B44E8
:10123C0004490A440449FFF7BFF9204606B010BD23
:10124C00CD1F0808B81F0808981F080810B50446D9
:10125C000448134620B10A4602202146AFF3008011
:10126C0010BD00BF000000000A44914200F1FF33A2
:10127C0000D1704710B511F8014B914203F8014FA2
:10128C00F9D110BD03460244934200D1704703F8D4
:10129C00011BF9E738B50D4B04461D68AB6B7BB9E8
:1012AC001820FFF771F90A4A0A4BA863C0E900231A
:1012BC00094B012283600B2383810023C0E90423A3
:1012CC000022AB6B1C615A6138BD00BF04000020CA
:1012DC000E33CDAB34126DE6ECDE050010F8012BAD
:1012EC0011F8013B012A28BF9A42F7D0D01A704757
:1012FC00034611F8012B03F8012B002AF9D1704792
:10130C00034613F8012B002AFBD1181A0138704739
:10131C00034610B5013932B111F8014F013A03F807
:10132C00014B002CF7D100211A44934200D110BD7F
:10133C0003F8011BF9E783070FD1642290FBF2F34A
:10134C0002FB13035BB94FF4C87290FBF2F302FB80
:10135C001300B0FA80F0400970470020704701205C
:10136C00704770B50421044640F2B1750726013C64
:10137C00AC4201DC084670BD2046FFF7DCFF01F2F1
:10138C006D11014491FBF6F0C0EBC000091AEEE7B9
:10139C002DE9F04105460E469046002456F82400EF
:1013AC0010B94FF0FF340DE0FFF7AAFF4346074694
:1013BC00024656F82410286800F0AAFC28B92868C0
:1013CC00384428602046BDE8F0810134E6E700008F
:1013DC002DE9F04F0F4614461E46002587B0DFF866
:1013EC004893DFF8488301903A786ABB05F007030D
:1013FC00072B40F00983EA0612D4C54B26696069B5
:10140C0053F82610E36800F26C701944E161FFF7A1
:10141C0092FF08B1012E01DC0139E16145F01005A4
:10142C0005F01C05142D0DD1606900F26C70FFF7EE
:10143C0098FFE3691844072390FBF3F3C3EBC30352
:10144C00C01AA061019821E212F8093018070AD5D8
:10145C00019B1A7819F80220110701D40137C3E750
:10146C0001330193F4E7252A40F0CA827B78002BE4
:10147C0000F0C682452B00F0BB804F2B00F0B880EB
:10148C000137A3F12502D1B2542900F2AC82542ABF
:10149C0000F2A98201A151F822F000BFEB19080853
:1014AC00F3190808F3190808F3190808F3190808C0
:1014BC00F3190808F3190808F3190808F3190808B0
:1014CC00F3190808F3190808F3190808F3190808A0
:1014DC00F3190808F3190808F3190808F319080890
:1014EC00F3190808F3190808F3190808F319080880
:1014FC00F3190808F3190808F3190808F319080870
:10150C00F3190808F3190808F31908080B1608084A
:10151C0029160808471608088D160808F319080834
:10152C00BF160808F3190808E3160808FF16080880
:10153C00F3190808F3190808F31908087D170808A7
:10154C00F3190808F3190808F3190808F31908081F
:10155C00DD1708083F1808085F1808089F180808C6
:10156C00DD1808082F190808A1190808CD19080852
:10157C0069140808F3190808F3190808F31908087E
:10158C00F3190808F3190808F319080823160808B2
:10159C00411608086F1608089F1608089F160808B9
:1015AC00F3190808F319080841160808F319080874
:1015BC003D170808E3160808FF1608085F17080807
:1015CC0097170808F3190808A3170808F31908084F
:1015DC00C5170808E51708085718080867180808F9
:1015EC00F31908088318080897190808AB19080894
:1015FC00BB78BA1C002B00F0F181174641E732464C
:10160C00444901A8FFF7C4FE0028C0F23E81A06146
:10161C0045F0080522E732463F49F2E732463F499A
:10162C0001A8FFF7B5FE0028C0F22F81206145F01C
:10163C00020513E732464146F2E733460A22019887
:10164C0003A900F09FFA039A019B9A4200F01D81B6
:10165C0064235843A0F26C706061019245F004055C
:10166C00FCE633462246D8F8A0100198FFF7B0FEEE
:10167C000390002800F00981019045F00F05EDE67C
:10168C003346224626490198FFF7A2FE0390F0B993
:10169C00FBE033460A22019803A900F073FA039B7E
:1016AC00019A934200F0F180E060019345F001054E
:1016BC00D4E6334622461B490198FFF789FE039076
:1016CC00002800F0E280019B984200F0DE8001903F
:1016DC0045F00705C2E633460A22019803A900F03B
:1016EC0051FA039B019A934200F0CF80A0600193C2
:1016FC00B4E633460A22019803A900F043FA039B8F
:10170C00019A934200F0C1800C2808BF0020EDE73D
:10171C000C200808D4210808B821080888210808DA
:10172C00C21D0808F11F080855220808582108088E
:10173C0033460A22019803A900F024FA039B019A6C
:10174C00934200F0A2800138E061019345F010054E
:10175C0084E633460A22019803A900F013FA039B8E
:10176C00019A934200F091800138206101935EE769
:10177C0033460A22019803A900F004FA039B019A4C
:10178C00934200F082806060B1E7019B1A780A2ACC
:10179C0000F02E8179E03246AC4901A8FFF7F8FD44
:1017AC00002872DBA3682BB901287FF457AE0C23F9
:1017BC00A36053E60C33FBE733462246D8F8E4101B
:1017CC000198FFF705FE039000285ED0019045E6D6
:1017DC00334622469E49F3E7FEF706FF0568FEF7FF
:1017EC0003FF00230A22036003A93346019800F08B
:1017FC0073FA82468B46039A019BCDE904AB9A425D
:10180C0043D0FEF7F1FE0368002B3ED1DDE9042343
:10181C005B4508BF524538D1214604A8FEF700FCB1
:10182C00844232D1FEF7E0FE039B05601F25019335
:10183C0014E633460A22019803A900F0A3F9039B8E
:10184C00019A934221D0206051E7019B1A78092A12
:10185C009EE7334622467F49B2E733460A22019877
:10186C0003A900F08FF9039B019A93420DD0013824
:10187C00A0610193CCE633460A22019803A900F03B
:10188C0081F9039B019A9342F2D1002007B0BDE885
:10189C00F08F33460A22019803A900F073F9DDF8A2
:1018AC000CB0019B82469B45EFD06069CAEBCA0A1B
:1018BC0000F26C70FFF755FDA36953441B1A002B03
:1018CC00E36102DAA0610023E361CDF804B03DE7E7
:1018DC0033460A22019803A900F054F9DDF80CB044
:1018EC00019B82469B45D0D0606900F26C70FFF77B
:1018FC0038FD0723821D92FBF3F3C3EBC303D21A0B
:10190C00032ACCBF002307230AF1FF30C0EBC00031
:10191C000344A06903449B1A002BE361D5DAA2614E
:10192C00D1E733460A22019803A900F02BF9DDF820
:10193C000CA0019B83469A45A7D0606900F26C709D
:10194C00FFF70FFD4FF0070C831D93FBFCF2A16911
:10195C00C2EBC20206319B1A91FBFCF2C2EBC20233
:10196C00891ACBEBCB020A44D21A002AE26109DABB
:10197C00013393FBFCFCCCEBCC0CA3EB0C03A36171
:10198C000023E361CDF804A0E0E633462246D8F804
:10199C009C1078E633462246D8F8981010E7334668
:1019AC000A22019803A900F0EDF8039B019A9342D7
:1019BC003FF46BAF452800DC6430606101934DE669
:1019CC0033460A22019803A900F0DCF8039B019A24
:1019DC0093423FF45AAFA0F26C70EEE70137019BD3
:1019EC001A78252AD4E6019A1178252902D1019B6F
:1019FC0001337CE6511C019152789A42F7D044E7AE
:101A0C00019B19789142C3E605F01403142B7FF463
:101A1C0007AD15F0020303D1E1691E291EDC236119
:101A2C00EB073FF5FDAC26690B4BE16953F826300B
:101A3C006069C91AE16000F26C70FFF77CFC10B1B0
:101A4C00012E3FF7EDAC0131E160E9E4FC2108081F
:101A5C00FA1F0808002008080C2008086069084EC6
:101A6C0000F26C70FFF767FC022356F82320024447
:101A7C00914202DB01330C2BF7D1013BCFE700BFC6
:101A8C000C200808014BFFF7A3BC00BF6800002026
:101A9C002DE9F0478C468646394E60461CF8014BC2
:101AAC00A55D15F00805F8D12D2C33D14FF00108A8
:101ABC009CF8004000F1020C002B5CD0102B0CD1D8
:101ACC00302C0AD19CF8000000F0DF0058284DD1D2
:101ADC0010239CF801400CF1020C002608F1004781
:101AEC00013FB7FBF3F9304603FB197AA4F130053B
:101AFC00092D18D82C46A34224DD751C07D081452E
:101B0C001DD301D1A2451ADB012600FB03401CF8B2
:101B1C00014BEBE72B2C08BF9CF80040A84608BFF4
:101B2C0000F1020CC8E7A4F14105192D01D8373C8E
:101B3C00E1E7A4F16105192D04D8573CDBE74FF020
:101B4C00FF36E4E7731C06D122233846CEF800306A
:101B5C0042B9BDE8F087B8F1000F00D04042002A2E
:101B6C00F7D00EB10CF1FF311160F2E73024002BED
:101B7C00B3D10823B1E7302CA4D00A23ADE700BFC2
:101B8C005522080813460A46014602480068FFF72A
:101B9C007FBF00BF0400002013460A4601460248DE
:101BAC000068FFF775BF00BF040000202DE9F04F5F
:101BBC0088461F460D46914687B0464A05902B46EF
:101BCC0015F8014BA65C16F00806F8D12D2C47D160
:101BDC0001262C789D1C002F77D0102F09D1302C8A
:101BEC0007D12B7803F0DF03582B69D110276C78C1
:101BFC0002354FF0FF326FF0004390194FEAE77B4C
:101C0C0043EBE6713A465B46CDE90001FFF7DEFA9D
:101C1C00CDE90201BA469646002300200021A4F12A
:101C2C00300CBCF1090F20D86446A7422EDD5A1C9B
:101C3C0013D0DDE902238B4208BF824223D301D1AA
:101C4C00A64520DB0AFB01F300FB0B33AAFB0001CA
:101C5C0019440123001941EBE47115F8014BDEE73F
:101C6C002B2C04BF2C789D1CB5E7A4F1410CBCF1C6
:101C7C00190F01D8373CD8E7A4F1610CBCF1190F4E
:101C8C0004D8573CD1E74FF0FF33E6E75A1C0AD192
:101C9C00DDE900012223059A1360B9F1000F0AD186
:101CAC0007B0BDE8F08F16B1404261EB4101B9F1CC
:101CBC00000FF5D00BB105F1FF38C9F80080EFE744
:101CCC003024002F95D1082793E7302C89D00A2790
:101CDC008FE700BF5522080813460A460146024802
:101CEC000068FFF763BF00BF0400002082B001B999
:101CFC0001A942B14BB113780B601278101E18BFBA
:101D0C00012002B070471046FBE76FF00100F8E7C6
:101D1C002DE9F84305460F46984600EB02094D4560
:101D2C000FD0414615F8010B00F00EF84146044661
:101D3C0017F8010B00F008F80646201A02D1002E05
:101D4C00EDD10020BDE8F883034BC35C03F0030323
:101D5C00012B08BF2030704755220808034608465F
:101D6C0041B1FF2A04D98A224FF0FF301A60704724
:101D7C0001200A70704700005D0008089D000808EB
:101D8C00C5000808C90008080000000030322F30D8
:101D9C00312F32312C30322F31302F32312C363032
:101DAC000073697A65206F6620737472696E6720A0
:101DBC00697320256400256D2F25642F2579006D0E
:101DCC006561737572656D656E7420706572696F8F
:101DDC0064203D20256C64007374617274446174DA
:101DEC00653A2000656E64446174653A200074693C
:101DFC006D65206E6F773A200074696D6520667290
:101E0C006F6D20656E6420746F206E6F773A20259D
:101E1C006400737461727444617465556E69783AC8
:101E2C0020256C642C20656E6444617465556E6964
:101E3C00783A20256C642C2065706F63683A2025F5
:101E4C0064006E756D626572206F66207265636FDB
:101E5C0072647320746F20736B69703A2025642C44
:101E6C00206E756D626572206F66207265636F728D
:101E7C00647320746F207075626C6973683A2025E6
:101E8C006400617070005A00252B3033643A2530A1
:101E9C0032750025592D256D2D25645425483A257C
:101EAC004D3A2553257A0061736374696D650000A2
:101EBC000000000000000000ED0C0808DD0C080814
:101ECC00DF0C08080000000000000000810D08086D
:101EDC00E70D0808BF0D0808B5070808B10D08087C
:101EEC00830D0808930D0808E10D0808A30D0808D8
:101EFC007D0D08080000000000000000730F0808AA
:101F0C00690F08085F0F0808E50E0808530F08084A
:101F1C000B010808470F08083F0F0808350F080881
:101F2C002B0F0808EF0E080800000000000000004E
:101F3C00AD0F080815100808F10F0808B5070808B8
:101F4C00C10F0808DD0F0808CF0F0808EB0F0808B1
:101F5C00AF0F0808B30F08080000000000000000D5
:101F6C00D5100808DF100808E9100808F310080855
:101F7C00FD10080809110808151108082111080896
:101F8C0029110808331108083D110808252E337350
:101F9C0020252E337325336420252E32643A252ECA
:101FAC0032643A252E32642025640A0053756E4D36
:101FBC006F6E5475655765645468754672695361E4
:101FCC00744A616E4665624D61724170724D617901
:101FDC004A756E4A756C4175675365704F63744EE4
:101FEC006F7644656325592D256D2D256400254894
:101FFC003A254D0025483A254D3A2553000000005E
:10200C00000000001F0000003B0000005A00000010
:10201C007800000097000000B5000000D40000001C
:10202C00F300000011010000300100004E0100001F
:10203C004A616E00466562004D617200417072002B
:10204C004D6179004A756E004A756C0041756700E8
:10205C00536570004F6374004E6F760044656300E7
:10206C004A616E756172790046656272756172794A
:10207C00004D6172636800417072696C004A756E44
:10208C0065004A756C79004175677573740053650A
:10209C007074656D626572004F63746F6265720077
:1020AC004E6F76656D62657200446563656D626541
:1020BC00720053756E004D6F6E0054756500576558
:1020CC00640054687500467269005361740053755E
:1020DC006E646179004D6F6E64617900547565733F
:1020EC00646179005765646E657364617900546846
:1020FC007572736461790046726964617900536129
:10210C007475726461790025612025622025652033
:10211C0025483A254D3A255320255900414D00506C
:10212C004D0025612025622025652025483A254D46
:10213C003A255320255A202559006D640025493A2B
:10214C00254D3A2553202570000000003C2008083E
:10215C004020080844200808482008084C2008089B
:10216C005020080854200808582008085C2008084B
:10217C006020080864200808682008086C200808FB
:10218C00742008087D200808832008084C200808C3
:10219C00892008088E200808932008089A2008082F
:1021AC00A4200808AC200808B5200808BE200808A0
:1021BC00C2200808C6200808CA200808CE20080833
:1021CC00D2200808D6200808DA200808E1200808E0
:1021DC00E8200808F0200808FA200808032108085D
:1021EC000A21080800200808C21D08081321080845
:1021FC00282108082B2108082E2108086C20080823
:10220C00742008087D200808832008084C20080842
:10221C00892008088E200808932008089A200808AE
:10222C00A4200808AC200808B52008084621080896
:10223C0049210808B71F0808B71F0808B71F080866
:10224C00B71F0808B71F08080020202020202020D6
:10225C00202028282828282020202020202020204A
:10226C00202020202020202020881010101010105A
:10227C0010101010101010101004040404040404A6
:10228C000404041010101010101041414141414140
:10229C000101010101010101010101010101010122
:1022AC000101010110101010101042424242424232
:1022BC0002020202020202020202020202020202F2
:1022CC00020202021010101020000000000000009A
:1022DC0000000000000000000000000000000000F2
:1022EC0000000000000000000000000000000000E2
:1022FC0000000000000000000000000000000000D2
:10230C0000000000000000000000000000000000C1
:10231C0000000000000000000000000000000000B1
:10232C0000000000000000000000000000000000A1
:10233C000000000000000000000000000000000091
:10234C000000000000000000004300504F534958AB
:10235C00002E000035060808D1080808250B0808CF
:10236C005D0B08087D0F08088511080899110808ED
:04237C00000000005D
:042380000000000059
:10238400B31E080808000020000000000000000040
:102394000000000000000000000000000000000039
:1023A4000000000000000000000000000000000029
:1023B4000000000000000000000000000000000019
:1023C4000000000000000000000000000000000009
:1023D40000000000000000000000000000000000F9
:1023E40000000000000000004300000000000000A6
:1023F40000000000000000000000000000000000D9
:102404000000000000000000430000000000000085
:1024140000000000000000000000000000000000B8
:102424000000000000000000430000000000000065
:102434000000000000000000000000000000000098
:102444000000000000000000430000000000000045
:102454000000000000000000000000000000000078
:102464000000000000000000430000000000000025
:102474000000000000000000000000000000000058
:102484000000000000000000430000000000000005
:102494000000000000000000000000000000000038
:1024A40000000000000000004300000000000000E5
:1024B4000000000000000000000000000000000018
:1024C4000000000000000000691D0808F91C08084D
:1024D40000000000542208085D230808B71F0808FC
:1024E400B71F0808B71F0808B71F0808B71F080850
:1024F400B71F0808B71F0808B71F0808B71F080840
:10250400FFFFFFFFFFFFFFFFFFFFFFFFFFFF0000D5
:10251400010041534349490000000000000000004D
:1025240000000000000000000000000000000000A7
:10253400000041534349490000000000000000002E
:102544000000000000000000000000000000000087
:042554000000000083
:10255800FFFFFFFF00000102030405060708090A40
:102568000B0C0D0E0F101112131415161718191A3B
:082578001B1C1D1E1F20280082
:042580007856341243
:040000050808001CCB
:00000001FF
