:020000040808EA
:1000000000000808B4280808000006000A000501DE
:080010000402D7070000000004
:04001800142608089A
:10001C0008B5024B1B685B6C019308BD2C000608ED
:10002C0008B5024B1B689B6D019308BD2C0006089C
:10003C0008B5024B1B685B6E019308BD2C000608CB
:10004C0009480A4908B5884205D0094A824202D0BB
:10005C00121A02F071FA0748074A0021121A02F02C
:10006C0079FA064808BD00BF0000002024280808C3
:10007C0068000020680000204C0100204C0100208A
:10008C0070B500F0B7FF0025054E064CA41BA40864
:10009C00A54200D170BD56F8043B98470135F7E7EF
:1000AC00042808082028080800F046B808B500F015
:1000BC00C9F8BDE8084000F05FBF00F0CDBA00F011
:1000CC00D3BA0078B0FA80F040097047012303706E
:1000DC0070470000002210B586B0032002A90292DE
:1000EC0000F00AFA10BB029C0CB1236923B9002161
:1000FC000A200F4A00F0F0F90023ADF80E300C2363
:10010C00ADF80C3001AB0493042301210593204678
:10011C00236903AA984748B9BDF8040001F04EFFC3
:10012C004FF06E5101F0A2FF06B010BD0148FBE785
:10013C00B5030808000080BFF0B597B001F038F89F
:10014C004FF4165101F028F8334800F079FD334B89
:10015C00334A344C1A600023236000F02DF942F22C
:10016C000F770546304E00F027F9401BB84205D8F2
:10017C0000F022F9306000F04FFAF4E72B490AA89E
:10018C0000F04CFC0A22216806A800F085FC06A9A8
:10019C000AA800F0C2FC264900F0CBFC044600F093
:1001AC0070FE244B024600932349C3170EA800F09F
:1001BC0009FE0EA9204600F0B0FC204900F0B9FC65
:1001CC000446FFF787FF0622014612A800F077FCD1
:1001DC0012A9204600F0A1FC014602A800F040FC48
:1001EC0012A800F0D1FB0EA800F0CEFB06A800F080
:1001FC00CBFB0AA800F0C8FB00F0DAFF104900F0B6
:10020C00E1FC00F0D5FF029900F0DCFC02A800F044
:10021C00BBFB17B0F0BD00BF0000E0C070000020B9
:10022C000074B7016C00002040010020282608084B
:10023C003126080839260808880000204B260808B3
:10024C0056260808F0B54A4C99B023684949013341
:10025C000AA8236000F0E2FB0A22216806A800F03D
:10026C001BFC06A90AA800F058FC434900F061FCED
:10027C00044600F006FE414B024641490093C31769
:10028C000EA800F09FFD20460EA900F046FC3D494B
:10029C0000F04FFC0446FFF71DFF0622014612A892
:1002AC0000F00DFC204612A900F037FC014602A814
:1002BC0000F0D6FB12A800F067FB0EA800F064FB60
:1002CC0006A800F061FB0AA800F05EFB00F070FFCE
:1002DC00029900F077FC13AB129301238DF85C307C
:1002EC00022300258DF85030274E284B102028492A
:1002FC00CDE915551F68ADF851508DF85350139634
:10030C0001F02DF9044680B31022294602F022F99F
:10031C000423A380169B2660C4E90237169400F0D0
:10032C004BF842F20F7604461A4D00F045F8001BCC
:10033C00B04205D800F040F8286000F06DF9F4E701
:10034C000EA812A900F0F4F90E9808B100F08CF97F
:10035C00169828B184680C2101F0FFF82046F8E7C4
:10036C0002A800F011FB19B0F0BD8DF85C00D6E7C7
:10037C006C000020282608083126080839260808B1
:10038C00880000204B260808100003007000002095
:10039C00A82708084001002008B5024B1B685B68C1
:1003AC00019308BD9C01040808B5024B1B68DB686F
:1003BC00019308BD9C01040808B5024B1B685B69DE
:1003CC00019308BD9C01040808B5024B1B689B6D8A
:1003DC00019308BD9C01040808B5024B1B685B6EB9
:1003EC00019308BD9C01040808B5024B1B689B696E
:1003FC00019308BDC401040808B5024B1B685B6A75
:10040C00019308BDC401040808B5024B1B689B6A24
:10041C00019308BDC401040808B5024B1B68DB6AD4
:10042C00019308BDC401040808B5024B1B681B6B83
:10043C00019308BDC401040808B5024B1B685B6B33
:10044C00019308BDC401040808B5024B1B681B6C62
:10045C00019308BDC401040808B5024B1B68DB6B93
:10046C00019308BD2000060808B5024B1B681B68E9
:10047C00019308BD1C00060808B5024B1B685B689D
:10048C00019308BD1C00060808B5024B1B681B69CC
:10049C00019308BD1C00060808B5024B1B685B697C
:1004AC00019308BD1C00060808B5024B1B689B692C
:1004BC00019308BD1C00060808B5024B1B68DB69DC
:1004CC00019308BD1C00060808B5024B1B681B6A8B
:1004DC00019308BD1C00060808B5024B1B685B6B3A
:1004EC00019308BDA001020808B5024B1B681B6DE7
:1004FC00019308BDA001020808B5034B1B68D3F893
:10050C009830019308BD0000A001020808B5024B09
:10051C001B681B68019308BDA401040808B5024BB5
:10052C001B685B68019308BDA401040808B5024B65
:10053C001B689B6D019308BDA401040808B5034B0F
:10054C001B68D3F89030019308BD0000A401040887
:10055C0008B5034B1B68D3F89C30019308BD000011
:10056C00A401040808B5034B1B68D3F8B4300193FD
:10057C0008BD0000A401040808B5024B1B685B68A9
:10058C00019308BDC801040808B5024B1B689B68A1
:10059C00019308BDC801040808B5024B1B68DB6851
:1005AC00019308BDC801040808B5024B1B681B6900
:1005BC00019308BDC801040808B5024B1B685B69B0
:1005CC00019308BDC801040808B5024B1B689B6960
:1005DC00019308BDC801040808B5024B1B68DB6910
:1005EC00019308BDC801040808B5024B1B681B6ABF
:1005FC00019308BDC801040808B5024B1B681B6BAE
:10060C00019308BDC801040808B5024B1B685B6B5D
:10061C00019308BDC801040808B5024B1B689B6810
:10062C00019308BDCC01040808B5024B1B685B693B
:10063C00019308BDCC01040808B5024B1B681B6B69
:10064C00019308BDCC01040808B5024B1B68DB6B99
:10065C00019308BDCC01040808B5024B1B681B684C
:10066C00019308BDA001040808B5024B1B685B6828
:10067C00019308BDA001040808B5024B1B689B68D8
:10068C00019308BDA001040808B5024B1B681B6947
:10069C00019308BDA001040808B5024B1B68DB6977
:1006AC00019308BDA001040808B5024B1B685B6CE4
:1006BC00019308BDA001040810B50446006818B1E8
:1006CC00FFF7D2FF0023236010BD10B50446FFF7DF
:1006DC00F3FF204610BD38B5B1F904300D468380C8
:1006EC000B4653F8062F0446C0F806209B8843811E
:1006FC00FFF7E2FF2B6813B1236000232B60204629
:10070C0038BD000038B50C460546FFF7D5FF44B19F
:10071C002088FFF7A1FF286028B12146228801F02C
:10072C000BFF002038BD0148FCE700BFFCFEFFFFBB
:10073C00F0B52D4D0B7D04468BB00846AF1D002B3C
:10074C0038D00B681B79002B34D00022274B02A920
:10075C00043004930292ADF80C208DF80E20FFF7B4
:10076C0001FFDDF80E3000B2C5F80630BDF81230CE
:10077C00ADF80C00A88002992846BB80FFF7C2FF99
:10078C0002A8FFF799FF00232360A380A3712381A4
:10079C004FF6FF736381B5F904302046A3803B68A4
:1007AC002968C4F80630BB886381FFF7ABFF20468D
:1007BC000BB0F0BD00262023CDE902360C4B3220C5
:1007CC0000930C49334602AAFFF78EFE074B02A991
:1007DC0004934FF6F263044802968DF80E60ADF860
:1007EC000C30FFF778FFCBE7740000200000FFFF10
:1007FC0078260808712608080222002010B5084B3C
:10080C00084C1A60084B2060A080A071A360FFF711
:10081C0085FE2046BDE81040044A054900F098BE0C
:10082C0080000020740000200000FFFF6800002002
:10083C00D706080810B5044601F0CAFE431E204630
:10084C002344834206D90278197800F8011B03F877
:10085C000129F6E710BD70B50C46911E222922D84D
:10086C00254668B1B0FBF2F602FB1600C1B20928AE
:10087C0094BF30315731C9B2304605F8011BF0E74F
:10088C002A4630212344934202D902F8011BFAE78D
:10089C005A1BAB4238BF002200232046AB54FFF753
:1008AC00C9FF204670BD0020FCE738B5031E0C467E
:1008BC0015460DDA2D22B3F1004F0CBF18465842E5
:1008CC0001230A702A461944FFF7C5FF204638BD9C
:1008DC000123F9E72DE9F04707460D4616461C465D
:1008EC00002200233846294601F06AFA20B12D2354
:1008FC0005F1004504F8013B00234FF0010A0A22E0
:10090C00D9B28E4203D902FB0AFA0133F8E75046FA
:10091C0000F07AFF3A462B4600F0E0FF804689460D
:10092C0001F0B6FD05460F4600F0A2FF02460B464D
:10093C004046494600F01AFE0022124B01F054FAD0
:10094C0010B1013547F10007524628463946D317F6
:10095C0001F052FD0123154621460A22FFF77BFFC9
:10096C006EB1204601F034FE2E23211823540A22A6
:10097C0033462846BDE8F0470131FFF76CBFBDE8B0
:10098C00F08700BF0000E03F10B504460068FFF799
:10099C006BFE204610BD10B50446006808B1FFF789
:1009AC0063FE0023C4E90133236010BD38B504464F
:1009BC000D4600680131FFF75FFE10B1C4E9000578
:1009CC00012038BD10B50368044623B143688B423F
:1009DC0001D3012010BD2046FFF7E8FF0028F9D015
:1009EC00A368002BF5D122681370F2E770B50E46A0
:1009FC00114604461546FFF7E5FF20B92046FFF7E0
:100A0C00CAFF204670BD2A4631462068A56001F019
:100A1C0093FD00212268A368D154F2E738B5002376
:100A2C0004460D46C0E900338360037339B10846B0
:100A3C0001F0CEFD294602462046FFF7D7FF20469F
:100A4C0038BD884210B50B46044604D0096821B164
:100A5C009A68FFF7CBFF204610BDFFF79CFFFAE723
:100A6C00002310B50446C0E9003383600373FFF71D
:100A7C00E8FF204610BD38B505460C4649B108467E
:100A8C0001F0A6FD214602462846FFF7AFFF284697
:100A9C0038BDFFF780FFFAE710B5002304468AB093
:100AAC00C4E90033A3602373084601A9FFF7FDFED8
:100ABC00204601A9FFF7DFFF20460AB010BD002336
:100ACC0030B504468BB0C0E9003383600373D5B2F4
:100ADC00084600F0ABFE2A4601ABFFF7FBFE2046B2
:100AEC0001A9FFF7C8FF20460BB030BD70B5054615
:100AFC000E4609B9002070BD6AB1846814442146C1
:100B0C00FFF760FF0028F5D02868AB683146184421
:100B1C0001F056FDAC600120EDE710B58A6809685C
:100B2C000446FFF7E3FF10B92046FFF734FF2046D9
:100B3C0010BD38B504460D4621B92046FFF72BFFF2
:100B4C00204638BD084601F043FD294602462046A2
:100B5C00FFF7CCFF0028F0D0F2E7F8B506460D46BB
:100B6C0000248F18BD420CD0336830469B6815F8B2
:100B7C00011B9847031E01DB1C44F3E7002C08BF44
:100B8C001C462046F8BD70B505460C46084649B1D2
:100B9C0001F01EFD2B68024621462846BDE8704038
:100BAC00DB68184770BD03689B68184738B50D2182
:100BBC000546FFF7F8FF0A2104462846FFF7F3FF26
:100BCC00204438BD38B50546FFF7DDFF04462846FE
:100BDC00FFF7ECFF204438BD0023012A98BF0A22FE
:100BEC0030B58BB00C468DF8243009A92546B4FBE2
:100BFC00F2F404FB1253DBB2092B94BF30333733BE
:100C0C00DBB2AA4201F8013DF0D9FFF7BCFF0BB0F3
:100C1C0030BD0000014B024A1A607047840000206E
:100C2C009F26080808B50020FFF706FD28B1FFF73E
:100C3C00FBFC80F00100C0B208BD0120FCE7000005
:100C4C0010B50A49044601F0AFFB68B920460849C3
:100C5C0001F0C8FB40B90749204601F007FA01F042
:100C6C00E3FB054BC3E9000110BD00BF000040C110
:100C7C0000006041000061459800002030B504463A
:100C8C00184893B0D0E90010521840EB03031648F3
:100C9C000025D0E90010521840EB0303CDE90023E6
:100CAC00242200210DEB020001F054FC09A9684636
:100CBC00FFF7B6F91622294603A8029501F04AFC63
:100CCC0002A909A801F004FC02A801F081FC12ABF6
:100CDC00184400F8415C02A92046FFF79FFE20460D
:100CEC0013B030BD98000020900000202DE9F04F8B
:100CFC00A5B00746884614A811463F221D4601F0B0
:100D0C006FFC002314A88DF88F3001F061FC0446B1
:100D1C005DBB2A4903A801F053FC002514AE04F175
:100D2C00FF3BAB4536D9B14619F8013B05F1010A39
:100D3C00252B17D173787A2B14D103A801F048FC1A
:100D4C00044614AB28181844ABEB0502B11C01F097
:100D5C00F3FB224603A9304601F0EEFB14A801F088
:100D6C0037FC04464E465546D9E73C2195FBF1F33A
:100D7C00002BB8BF5B42B3FBF1F201FB12330093C3
:100D8C004FF46163102195FBF3F30D4A03A8FFF7B1
:100D9C0083FCC2E700212E2208A8079101F0DAFBA0
:100DAC00434614AA322107A8FFF742F9384607A98F
:100DBC00FFF734FE384625B0BDE8F08FA3260808AF
:100DCC00A5260808F0B58DB0129D0446CDE9002388
:100DDC0015B9194B1D682DB1184B2846196801F02F
:100DEC00E5FB38B9DDE900232046FFF747FF204635
:100DFC000DB0F0BD0099124E124FD6E900325B18BF
:100E0C00019941EB0202D7E900011B1841EB0202E8
:100E1C00CDE900320021242203A801F09BFB03A999
:100E2C006846FFF7FDF832683B682046134403A977
:100E3C002A46FFF75BFFDAE78C0000200000002059
:100E4C00980000209000002010B50020FFF7BCFA9D
:100E5C000446A0B9FFF75AFB012810D12046FFF732
:100E6C0065FB60B9FFF7DEFE10B9FFF7D5FBF9E7BC
:100E7C00FFF7D8FEBDE810400020FFF7A5BA2046CA
:100E8C0010BD1FB5FFF7E0FF10220021684601F0EE
:100E9C0061FB00216846FFF79FFA009805B05DF8EA
:100EAC0004FB0000024B1A68024B1A60704700BF2B
:100EBC00000000208C00002010B58368044613B19C
:100ECC00032201469847204610BD10B50446FFF793
:100EDC00F3FF204610BD000000230348034A0449D9
:100EEC00836000F035BB00BFA0000020680000202C
:100EFC00D70E0808014B1860704700BF0400002093
:100F0C0008B5174B43B100F053F903681B699847B8
:100F1C00002801DDAFF30080124B43B100F05CFA06
:100F2C0003681B699847002801DDAFF300800E4B66
:100F3C000BB1AFF300800D4B0BB1AFF300800C4B3A
:100F4C000BB1AFF300800B4B43B100F061F90368B8
:100F5C001B699847002801DDAFF3008008BD00BF76
:100F6C000000000000000000000000000000000075
:100F7C00000000000000000008B5FFF7C1FFFFF7FC
:100F8C001BFA014B186008BD400100200248034ABF
:100F9C000349121A01F0D0BA00400240044002404A
:100FAC0020280808002307B51A466FF07701009334
:100FBC00FFF7CEFA03B05DF804FB000007B54388D9
:100FCC000A2B08D0502B0BD1094B1B684BB103B02B
:100FDC005DF804EB1847FFF7E5FF03B05DF804FB81
:100FEC0000231A466FF077010093FFF7B1FAF4E78C
:100FFC00B400002038B5124C00211248FFF754FB06
:10100C00114D2368AB420CBF012200220F4B1A700A
:10101C0002D0FFF7BBFF2560FFF7BEF9044601F0D5
:10102C00A1FA0B4B13B12046AFF300800021084806
:10103C00FFF70AFBBDE8384000210648FFF77EBAEF
:10104C0000400240010F08081E1C279AB000002027
:10105C0000000000C90F0808704710B504460821AD
:10106C0000F07BFA204610BDF8B50E46002400F1C6
:10107C000807051D17F8011D0A223046FFF7ACFDC5
:10108C00AF42044401D12046F8BD002CF2D02E21F1
:10109C003046FFF788FD0444ECE70000024A02608A
:1010AC0000224260704700BFD4260808024A026042
:1010BC000A684260704700BFD4260808014AC0E99C
:1010CC0000217047D426080810B59DF8084044EA62
:1010DC00032444EA024444EA0164446010BD000065
:1010EC0037B5044D05609DF818500095FFF7ECFFDF
:1010FC0003B030BDD426080841747047704708B55A
:10110C000021007CFFF7D0F940EAE07008BD08B57B
:10111C000121007CFFF7C8F940EAE07008BD08B572
:10112C00007CFFF7B9F920EAE07008BD08B5007C37
:10113C00FFF7AAF920EAE07008BD38B50446007C38
:10114C000D46FFF7A9F9002801DC607C28B129467F
:10115C00207CFFF7B1F920EAE07038BD007CFFF786
:10116C00B3B910B50446142100F0F7F9204610BDB0
:10117C0010B54FF47A73044608460021C4E90113F4
:10118C00044B20742360012311466374FFF76CF940
:10119C00204610BDE82608080022007CFFF76CB939
:1011AC0010B504461422002101F0D4F9204610BDDC
:1011BC0030B50F4D87B001A8FFF7F2FF2978BFF3C8
:1011CC005B8F11F0010410D12846FEF77AFF60B155
:1011DC00214601AA0748FFF7CBFF2846FEF776FF0A
:1011EC00054A0649034800F0B3F9024807B030BD80
:1011FC00B8000020C0000020680000200911080879
:10120C0010B504461422002101F0A4F9204610BDAB
:10121C0010B50F4C86B001A8FFF7F2FF2378BFF38F
:10122C005B8FDB0710D42046FEF74BFF60B101212A
:10123C0001AA0848FFF79CFF2046FEF747FF064A25
:10124C000649044800F084F9024806B010BD00BFFE
:10125C00BC000020D4000020680000200911080800
:10126C00002240681146FFF79FB9F0B5002685B003
:10127C00044610460F461546039601F0A9F97B6803
:10128C0081B20096284603AAFFF7E6F830B1314642
:10129C002046FFF713FF204605B0F0BD204603A9FA
:1012AC00FFF704FFF7E7002240681146FFF79CB9EF
:1012BC00002240681146FFF7A7B900224068FFF7EB
:1012CC009BB90022406881F00101FFF785B900232A
:1012DC0040681A461946FFF777B9002340681A464A
:1012EC001946FFF769B9002240681146FFF74CB95F
:1012FC00002202214068FFF74FB9002340681A46CC
:10130C00FFF73AB910B52824074B2246184600219E
:10131C0001F020F94FF0FF3242600422034B0480AD
:10132C005A60034A1A6010BDF0000020E80000204B
:10133C001827080870474174704708B5007CFFF700
:10134C0083F820EAE07008BD08B5007CFFF75CF874
:10135C0020EAE07008BD08B5007CFFF765F840EAAC
:10136C00E07008BD08B5007CFFF756F840EAE07065
:10137C0008BD007CFFF760B870B5467C04460D468E
:10138C002EB12946207CBDE87040FFF735B8007CB3
:10139C00FFF75AF80028F4DC304670BD10B504464F
:1013AC00142100F0DAF8204610BD00004FF0000CBC
:1013BC0010B50446084611464FF47A72C4E901C2CE
:1013CC00044A20742260012262741A46FFF70CF85A
:1013DC00204610BD4C270808F8B51A4C26684EB9A3
:1013EC008420FEF76AFE054618B18422314601F0CE
:1013FC00B1F82560144D2F684FB98420FEF75DFEBF
:10140C00064618B18422394601F0A4F82E600F4F1D
:10141C003978BFF35B8F11F0010611D13846FEF716
:10142C0050FE68B1314622682B680948FFF7BEFFB1
:10143C003846FEF74BFE074A0749054800F088F886
:10144C000348F8BD1C0100202001002018010020D9
:10145C002401002068000020411308080023406884
:10146C001A46FFF789B8002202214068FFF794B8AA
:10147C00002240681146FFF787B8002240681146E9
:10148C00FFF792B8002340681A461946FFF794B844
:10149C00002340681A461946FFF796B800224068A8
:1014AC0081F00101FFF798B800224068FFF7A4B85B
:1014BC00002240681146FFF7A7B800224068114689
:1014CC00FFF792B870B51546002686B0044604A8FE
:1014DC00FFF7E4FD2846039601F07AF80A4B0096D4
:1014EC0081B25B68284603AAFEF7B6FF30B13146DD
:1014FC002046FFF7E3FD204606B070BD204603A949
:10150C00FFF7D4FDF7E700BFE8000020024B034AC9
:10151C001A6000225A607047380100207C270808A6
:10152C00002313B5074C1A46194620460093FFF7C3
:10153C00D7FD2046044A054902B0BDE8104000F032
:10154C0007B800BF4401002068000020651008089F
:10155C000B460146184600F0E1BFFEF7B0BDFEF7A2
:10156C00ACBD000081F0004102E000BF83F00043FD
:10157C0030B54FEA41044FEA430594EA050F08BF22
:10158C0090EA020F1FBF54EA000C55EA020C7FEAE6
:10159C00645C7FEA655C00F0E2804FEA5454D4EB63
:1015AC005555B8BF6D420CDD2C4480EA020281EA2D
:1015BC00030382EA000083EA010180EA020281EA65
:1015CC000303362D88BF30BD11F0004F4FEA0131B7
:1015DC004FF4801C4CEA113102D0404261EB4101C6
:1015EC0013F0004F4FEA03334CEA133302D052424C
:1015FC0063EB430394EA050F00F0A780A4F1010408
:10160C00D5F1200E0DDB02FA0EFC22FA05F2801841
:10161C0041F1000103FA0EF2801843FA05F3594127
:10162C000EE0A5F120050EF1200E012A03FA0EFCA6
:10163C0028BF4CF0020C43FA05F3C01851EBE371D0
:10164C0001F0004507D54FF0000EDCF1000C7EEBED
:10165C0000006EEB0101B1F5801F1BD3B1F5001F2B
:10166C000CD349085FEA30004FEA3C0C04F101044A
:10167C004FEA445212F5800F80F09A80BCF1004F73
:10168C0008BF5FEA500C50F1000041EB045141EAF5
:10169C00050130BD5FEA4C0C404141EB0101013CBE
:1016AC0028BFB1F5801FE9D291F0000F04BF0146AD
:1016BC000020B1FA81F308BF2033A3F10B03B3F17F
:1016CC0020020CDA0C3208DD02F1140CC2F10C020F
:1016DC0001FA0CF021FA02F10CE002F11402D8BF6D
:1016EC00C2F1200C01FA02F120FA0CFCDCBF41EA39
:1016FC000C019040E41AA2BF01EB0451294330BD08
:10170C006FEA04041F3C1CDA0C340EDC04F11404E4
:10171C00C4F1200220FA04F001FA02F340EA0300BB
:10172C0021FA04F345EA030130BDC4F10C04C4F101
:10173C00200220FA02F001FA04F340EA03002946E1
:10174C0030BD21FA04F0294630BD94F0000F83F42B
:10175C00801306BF81F480110134013D4EE77FEA0E
:10176C00645C18BF7FEA655C29D094EA050F08BF5A
:10177C0090EA020F05D054EA000C04BF194610463B
:10178C0030BD91EA030F1EBF0021002030BD5FEA7F
:10179C00545C05D14000494128BF41F0004130BDA7
:1017AC0014F580043CBF01F5801130BD01F00045FB
:1017BC0045F0FE4141F470014FF0000030BD7FEA6E
:1017CC00645C1ABF194610467FEA655C1CBF0B4669
:1017DC00024650EA013406BF52EA033591EA030F80
:1017EC0041F4002130BD00BF90F0000F04BF002178
:1017FC00704730B54FF4806404F132044FF00005AB
:10180C004FF0000150E700BF90F0000F04BF002123
:10181C00704730B54FF4806404F1320410F0004589
:10182C0048BF40424FF000013EE700BF42004FEA84
:10183C00E2014FEA31014FEA02701FBF12F07F4301
:10184C0093F07F4F81F06051704732F07F4208BFB8
:10185C00704793F07F4F04BF41F40021704730B5BF
:10186C004FF4607401F0004521F000411CE700BF0B
:10187C0050EA010208BF704730B54FF000050AE08E
:10188C0050EA010208BF704730B511F0004502D58F
:10189C00404261EB41014FF4806404F132045FEA91
:1018AC00915C3FF4D8AE4FF003025FEADC0C18BF3A
:1018BC0003325FEADC0C18BF033202EBDC02C2F12C
:1018CC00200300FA03FC20FA02F001FA03FE40EABE
:1018DC000E0021FA02F11444BDE600BF70B54FF0C2
:1018EC00FF0C4CF4E06C1CEA11541DBF1CEA1355A0
:1018FC0094EA0C0F95EA0C0F00F0DEF82C4481EA08
:10190C00030621EA4C5123EA4C5350EA013518BF27
:10191C0052EA033541F4801143F4801338D0A0FB14
:10192C0002CE4FF00005E1FB02E506F00042E0FBC1
:10193C0003E54FF00006E1FB03569CF0000F18BFC7
:10194C004EF0010EA4F1FF04B6F5007F64F540746F
:10195C0004D25FEA4E0E6D4146EB060642EAC62102
:10196C0041EA55514FEAC52040EA5E504FEACE2E6F
:10197C00B4F1FD0C88BFBCF5E06F1ED8BEF1004F72
:10198C0008BF5FEA500E50F1000041EB045170BDEE
:10199C0006F0004646EA010140EA020081EA030132
:1019AC00B4EB5C04C2BFD4EB0C0541EA045170BD2E
:1019BC0041F480114FF0000E013C00F3AB8014F1A8
:1019CC00360FDEBF002001F0004170BDC4F10004F1
:1019DC00203C35DA0C341BDC04F11404C4F1200572
:1019EC0000FA05F320FA04F001FA05F240EA0200CD
:1019FC0001F0004221F0004110EBD37021FA04F603
:101A0C0042EB06015EEA430E08BF20EAD37070BDBC
:101A1C00C4F10C04C4F1200500FA04F320FA05F01B
:101A2C0001FA04F240EA020001F0004110EBD3701D
:101A3C0041F100015EEA430E08BF20EAD37070BD8D
:101A4C00C4F1200500FA05F24EEA020E20FA04F366
:101A5C0001FA05F243EA020321FA04F001F0004115
:101A6C0021FA04F220EA020000EBD3705EEA430E86
:101A7C0008BF20EAD37070BD94F0000F0FD101F0B5
:101A8C000046400041EB010111F4801F08BF013CEE
:101A9C00F7D041EA060195F0000F18BF704703F02C
:101AAC000046520043EB030313F4801F08BF013DB3
:101ABC00F7D043EA0603704794EA0C0F0CEA13556F
:101ACC0018BF95EA0C0F0CD050EA410618BF52EA29
:101ADC004306D1D181EA030101F000414FF000002F
:101AEC0070BD50EA410606BF1046194652EA43063D
:101AFC0019D094EA0C0F02D150EA013613D195EAB1
:101B0C000C0F05D152EA03361CBF104619460AD1F8
:101B1C0081EA030101F0004141F0FE4141F4700102
:101B2C004FF0000070BD41F0FE4141F4780170BDF2
:101B3C0070B54FF0FF0C4CF4E06C1CEA11541DBF57
:101B4C001CEA135594EA0C0F95EA0C0F00F0A7F859
:101B5C00A4EB050481EA030E52EA03354FEA013186
:101B6C0000F088804FEA03334FF0805545EA131399
:101B7C0043EA12634FEA022245EA111545EA106561
:101B8C004FEA00260EF000419D4208BF964244F1F8
:101B9C00FD0404F5407402D25B084FEA3202B61A17
:101BAC0065EB03055B084FEA32024FF480104FF4EB
:101BBC00002CB6EB020E75EB030E22BFB61A75465F
:101BCC0040EA0C005B084FEA3202B6EB020E75EBF2
:101BDC00030E22BFB61A754640EA5C005B084FEA5A
:101BEC003202B6EB020E75EB030E22BFB61A754627
:101BFC0040EA9C005B084FEA3202B6EB020E75EB32
:101C0C00030E22BFB61A754640EADC0055EA060EF2
:101C1C0018D04FEA051545EA16754FEA06164FEA35
:101C2C00C30343EA52734FEAC2025FEA1C1CC0D1E1
:101C3C0011F4801F0BD141EA00014FF000004FF06E
:101C4C00004CB6E711F4801F04BF01430020B4F12F
:101C5C00FD0C88BFBCF5E06F3FF6AFAEB5EB030CE7
:101C6C0004BFB6EB020C5FEA500C50F1000041EBE4
:101C7C00045170BD0EF0004E4EEA113114EB5C04B1
:101C8C00C2BFD4EB0C0541EA045170BD41F4801184
:101C9C004FF0000E013C90E645EA060E8DE60CEA8C
:101CAC00135594EA0C0F08BF95EA0C0F3FF43BAFA9
:101CBC0094EA0C0F0AD150EA01347FF434AF95EA60
:101CCC000C0F7FF425AF104619462CE795EA0C0F44
:101CDC0006D152EA03353FF4FDAE1046194622E711
:101CEC0050EA410618BF52EA43067FF4C5AE50EAEB
:101CFC0041047FF40DAF52EA43057FF4EBAE12E7DB
:101D0C004FF0FF3C06E000BF4FF0010C02E000BFBB
:101D1C004FF0010C4DF804CD4FEA410C7FEA6C5C9E
:101D2C004FEA430C18BF7FEA6C5C1BD001B050EA41
:101D3C00410C0CBF52EA430C91EA030F02BF90EA2C
:101D4C00020F0020704710F1000F91EA030F58BFEB
:101D5C00994208BF90422CBFD8176FEAE37040F04D
:101D6C00010070474FEA410C7FEA6C5C02D150EAEB
:101D7C00013C07D14FEA430C7FEA6C5CD6D152EAA6
:101D8C00033CD3D05DF8040B704700BF844610466B
:101D9C0062468C461946634600E000BF01B5FFF76A
:101DAC00B7FF002848BF10F1000F01BD4DF808ED3A
:101DBC00FFF7F4FF0CBF012000205DF808FB00BF0B
:101DCC004DF808EDFFF7EAFF34BF012000205DF865
:101DDC0008FB00BF4DF808EDFFF7E0FF94BF0120B2
:101DEC0000205DF808FB00BF4DF808EDFFF7CEFFB3
:101DFC0094BF012000205DF808FB00BF4DF808EDF2
:101E0C00FFF7C4FF34BF012000205DF808FB00BFC2
:101E1C004A0011D212F5001211D20DD56FF478735D
:101E2C00B3EB62520ED44FEAC12343F0004343EAB2
:101E3C00505323FA02F070474FF00000704750EAFD
:101E4C00013002D14FF0FF3070474FF00000704767
:101E5C0080F0004002E000BF81F0004142001FBF53
:101E6C005FEA410392EA030F7FEA226C7FEA236C5C
:101E7C006AD04FEA1262D2EB1363C1BFD218414051
:101E8C0048404140B8BF5B42192B88BF704710F0E7
:101E9C00004F40F4000020F07F4018BF404211F08A
:101EAC00004F41F4000121F07F4118BF494292EAF2
:101EBC00030F3FD0A2F1010241FA03FC10EB0C001E
:101ECC00C3F1200301FA03F100F0004302D54942AB
:101EDC0060EB4000B0F5000F13D3B0F1807F06D358
:101EEC0040084FEA310102F10102FE2A51D2B1F150
:101EFC00004F40EBC25008BF20F0010040EA030045
:101F0C007047490040EB0000013A28BFB0F5000FC4
:101F1C00EDD2B0FA80FCACF1080CB2EB0C0200FA7A
:101F2C000CF0AABF00EBC25052421843BCBFD040C9
:101F3C001843704792F0000F81F4000106BF80F443
:101F4C0000000132013BB5E74FEA41037FEA226C06
:101F5C0018BF7FEA236C21D092EA030F04D092F0D1
:101F6C00000F08BF0846704790EA010F1CBF002005
:101F7C00704712F07F4F04D1400028BF40F0004062
:101F8C00704712F100723CBF00F50000704700F082
:101F9C00004343F0FE4040F4000070477FEA2262A9
:101FAC0016BF08467FEA23630146420206BF5FEA7A
:101FBC00412390EA010F40F4800070474FF000037A
:101FCC0004E000BF10F0004348BF40425FEA000C41
:101FDC0008BF704743F0964301464FF000001CE0E9
:101FEC0050EA010208BF70474FF000030AE000BF3F
:101FFC0050EA010208BF704711F0004302D540427D
:10200C0061EB41015FEA010C02BF844601460020EE
:10201C0043F0B64308BFA3F18053A3F50003BCFA09
:10202C008CF2083AA3EBC25310DB01FA02FC6344B6
:10203C0000FA02FCC2F12002BCF1004F20FA02F2BD
:10204C0043EB020008BF20F00100704702F12002B0
:10205C0001FA02FCC2F1200250EA4C0021FA02F211
:10206C0043EB020008BF20EADC7070474FF0FF0C16
:10207C001CEAD0521EBF1CEAD15392EA0C0F93EA11
:10208C000C0F6FD01A4480EA010C400218BF5FEAB3
:10209C0041211ED04FF0006343EA501043EA511126
:1020AC00A0FB01310CF00040B1F5000F3EBF490020
:1020BC0041EAD3715B0040EA010062F17F02FD2A24
:1020CC001DD8B3F1004F40EBC25008BF20F0010007
:1020DC00704790F0000F0CF0004C08BF49024CEA1E
:1020EC00502040EA51207F3AC2BFD2F1FF0340EAB0
:1020FC00C250704740F400004FF00003013A5DDC21
:10210C0012F1190FDCBF00F000407047C2F1000261
:10211C00410021FA02F1C2F1200200FA02FC5FEA4E
:10212C00310040F1000053EA4C0308BF20EADC7098
:10213C00704792F0000F00F0004C02BF400010F40A
:10214C00000F013AF9D040EA0C0093F0000F01F0B7
:10215C00004C02BF490011F4000F013BF9D041EAD9
:10216C000C018FE70CEAD15392EA0C0F18BF93EADB
:10217C000C0F0AD030F0004C18BF31F0004CD8D105
:10218C0080EA010000F00040704790F0000F17BF8C
:10219C0090F0004F084691F0000F91F0004F14D0D2
:1021AC0092EA0C0F01D142020FD193EA0C0F03D12A
:1021BC004B0218BF084608D180EA010000F000402D
:1021CC0040F0FE4040F40000704740F0FE4040F408
:1021DC00400070474FF0FF0C1CEAD0521EBF1CEAA7
:1021EC00D15392EA0C0F93EA0C0F69D0A2EB0302C5
:1021FC0080EA010C49024FEA402037D04FF080535F
:10220C0043EA111143EA10130CF000408B4238BF23
:10221C005B0042F17D024FF4000C8B4224BF5B1A31
:10222C0040EA0C00B3EB510F24BFA3EB510340EA7F
:10223C005C00B3EB910F24BFA3EB910340EA9C002D
:10224C00B3EBD10F24BFA3EBD10340EADC001B019D
:10225C0018BF5FEA1C1CE0D1FD2A3FF650AF8B4241
:10226C0040EBC25008BF20F0010070470CF0004C4E
:10227C004CEA50207F32C2BFD2F1FF0340EAC25079
:10228C00704740F400004FF00003013A37E792F03A
:10229C00000F00F0004C02BF400010F4000F013A98
:1022AC00F9D040EA0C0093F0000F01F0004C02BF93
:1022BC00490011F4000F013BF9D041EA0C0195E7FC
:1022CC000CEAD15392EA0C0F08D142027FF47DAF95
:1022DC0093EA0C0F7FF470AF084676E793EA0C0F85
:1022EC0004D14B023FF44CAF08466EE730F0004C83
:1022FC0018BF31F0004CCAD130F000427FF45CAF13
:10230C0031F000437FF43CAF5FE700BF4FF0FF3C80
:10231C0006E000BF4FF0010C02E000BF4FF0010CD3
:10232C004DF804CD4FEA40024FEA41037FEA226C9C
:10233C0018BF7FEA236C11D001B052EA530C18BFBE
:10234C0090EA010F58BFB2EB030088BFC81738BF23
:10235C006FEAE17018BF40F0010070477FEA226C11
:10236C0002D15FEA402C05D17FEA236CE4D15FEA0D
:10237C00412CE1D05DF8040B704700BF8446084641
:10238C006146FFE70FB5FFF7C9FF002848BF10F102
:10239C00000F0FBD4DF808EDFFF7F4FF0CBF012047
:1023AC0000205DF808FB00BF4DF808EDFFF7EAFFD1
:1023BC0034BF012000205DF808FB00BF4DF808ED8C
:1023CC00FFF7E0FF94BF012000205DF808FB00BF81
:1023DC004DF808EDFFF7D2FF94BF012000205DF807
:1023EC0008FB00BF4DF808EDFFF7C8FF34BF012014
:1023FC0000205DF808FB00BF53B94AB9002908BF9B
:10240C0000281CBF4FF0FF314FF0FF3000F05EB8DA
:10241C00ADF1080C6DE904CEFDF7FAFDDDF804E032
:10242C00DDE9022304B0704710B500210446FFF724
:10243C00BBFF20B92046BDE8104000F009B804F1FC
:10244C00004000F005F8404261EB410110BD00BFB7
:10245C00D0B5FFF7EBF900220B4B06460F46FFF702
:10246C003DFAFFF7D5FC0446FFF7BEF90022074BF7
:10247C00FFF734FA02460B4630463946FFF776F83A
:10248C00FFF7C6FC2146D0BD0000F03D0000F04136
:10249C00D0B500220B4B06460F46FFF71FFAFFF78D
:1024AC00B7FC0446FFF7A0F90022074BFFF716FA1A
:1024BC0002460B4630463946FFF758F8FFF7A8FCA2
:1024CC002146D0BD0000F03D0000F041704700BF38
:1024DC0010B50C46416986B001F26C7103698269D2
:1024EC000491016803EB43030391416802EB420240
:1024FC00029181680191C1682046009104490B4406
:10250C0004490A440449FEF7BFF8204606B010BD42
:10251C00DE270808C9270808A927080810B50446AB
:10252C000448134620B10A4602202146AFF300802E
:10253C0010BD00BF000000000A44914200F1FF33BF
:10254C0000D1704710B511F8014B914203F8014FBF
:10255C00F9D110BD03460244934200D1704703F8F1
:10256C00011BF9E738B50D4B04461D68AB6B7BB905
:10257C001820FEF771F80A4A0A4BA863C0E9002339
:10258C00094B012283600B2383810023C0E90423C0
:10259C000022AB6B1C615A6138BD00BF04000020E7
:1025AC000E33CDAB34126DE6ECDE050010F8012BCA
:1025BC0011F8013B012A28BF9A42F7D0D01A704774
:1025CC00034611F8012B03F8012B002AF9D17047AF
:1025DC00034613F8012B002AFBD1181A0138704757
:1025EC00034610B5013932B111F8014F013A03F825
:1025FC00014B002CF7D100211A44934200D110BD9D
:10260C0003F8011BF9E700004D0008088D000808CD
:10261C00B5000808B9000808000000004C6F6F7086
:10262C0020233A20002054696D653A200025592D4D
:10263C00256D2D25642025483A254D3A255300203B
:10264C0042617474534F433A20003D3D3D3D3D3D46
:10265C003D20534554205550203D3D3D3D3D3D3D95
:10266C003D3D3D3D00776972696E67005379737427
:10267C00656D20736C65657020636F6E6669677538
:10268C00726174696F6E20697320696E76616C6912
:10269C00642E00617070005A00252B3033643A258B
:1026AC003032750025592D256D2D25645425483A59
:1026BC00254D3A2553257A0061736374696D650065
:1026CC0000000000000000007510080865100808E4
:1026DC00671008080000000000000000091108083D
:1026EC006F11080847110808670B0808391108080A
:1026FC000B1108081B110808691108082B11080890
:10270C00051108080000000000000000071308086D
:10271C00FD120808F31208086D120808E7120808E1
:10272C00DB120808CF120808C7120808BD120808E7
:10273C00B31208087712080800000000000000001F
:10274C0041130808A913080885130808670B080823
:10275C005513080871130808631308087F13080839
:10276C00431308084713080800000000000000008D
:10277C0069140808731408087D14080887140808DD
:10278C00911408089D140808A9140808B514080821
:10279C00BD140808C7140808D114080800252E33E6
:1027AC007320252E337325336420252E32643A256D
:1027BC002E32643A252E32642025640A0053756E3D
:1027CC004D6F6E54756557656454687546726953E0
:1027DC0061744A616E4665624D61724170724D6101
:1027EC00794A756E4A756C4175675365704F6374A1
:1027FC004E6F76446563000005080808210C080834
:10280C00B10E0808E50E0808111308081915080878
:04281C002D15080866
:0428200000000000B4
:10282400C426080808000020000000000000000082
:102834000000000000000000000000000000000094
:102844000000000000000000000000000000000084
:102854000000000000000000000000000000000074
:102864000000000000000000000000000000000064
:102874000000000000000000000000000000000054
:0828840000000000000000004C
:10288C00FFFFFFFF00000102030405060708090A09
:10289C000B0C0D0E0F101112131415161718191A04
:0828AC001B1C1D1E1F2028004B
:0428B400785634120C
:040000050808001CCB
:00000001FF
